:100000000C945E0C0C948F0C0C948F0C0C948F0C35
:100010000C948F0C0C948F0C0C948F0C0C948F0CF4
:100020000C948F0C0C948F0C0C948F0C0C948F0CE4
:100030000C948F0C0C948F0C0C948F0C0C948F0CD4
:100040000C948F0C0C944E280C948F0C0C948F0CE9
:100050000C948F0C0C948F0C0C945D460C942045E2
:100060000C948F0C0C9499380C948F0C0C948F0C6E
:100070000C948F0C0C948F0C0C948F0C0C948F0C94
:100080000C948F0C0C948F0C0C948F0C0C948F0C84
:100090000C948F0C0C948F0C0C948F0C0C948F0C74
:1000A0000C948F0C0C948F0C0C948F0C0C948F0C64
:1000B0000C948F0C0C948F0C0C948F0C0C948F0C54
:1000C0000C948F0C0C948F0C0C948F0C0C948F0C44
:1000D0000C948F0C0C948F0C0C948F0C0C948F0C34
:1000E0000C948F0C6F437243614365436B43A94388
:1000F00076437A438043844388438E4392439643B6
:10010000A9439C43A043A4433C4441444644504437
:100110005A44D34464446C4474447E4488449244B6
:10012000A144AB44D344B544BF44C944084AD73B77
:100130003BCE016E84BCBFFDC12F3D6C74319ABDB6
:1001400056833DDA3D00C77F11BED9E4BB4C3E91DA
:100150006BAAAABE000000803F05A84CCDB2D44EC9
:10016000B93836A9020C50B9918688083CA6AAAACB
:100170002ABE000000803F004E414E494E4954596E
:10018000494E46CDCCCC3D0AD7233C17B7D1387762
:10019000CC2B329595E6241FB14F0A000020410078
:1001A00000C84200401C4620BCBE4CCA1B0E5AAEC2
:1001B000C59D74434F4D4D554E49434154494F4E93
:1001C0000044525952554E004552524F5253004925
:1001D0004E464F004543484F0020746F6F206C6FB0
:1001E0006E6720657874727573696F6E20707265C2
:1001F00076656E7465640A0020636F6C64206578B0
:1002000074727573696F6E2070726576656E746551
:10021000640A0047322F47332062616420706172A4
:10022000616D65746572730A002569730025696DD7
:1002300020256973002569682025696D202569736B
:1002400000256964202569682025696D202569736A
:100250000025697920256964202569682025696D54
:1002600020256973005072696E742074696D653A57
:100270002000D401CF01C801C101B3016F6666003F
:1002800044454255473A004B494C4C45442E2000CA
:100290004D3131332053006F6B0020573A002C2032
:1002A000002C2000544845524D414C5F50524F5451
:1002B000454354494F4E004155544F5245504F52BB
:1002C000545F53445F53544154555300454D455278
:1002D00047454E43595F50415253455200434153A5
:1002E000455F4C494748545F4252494748544E4540
:1002F000535300544F47474C455F4C49474854536C
:1003000000534F4654574152455F504F5745520096
:100310004255494C445F50455243454E54004C456C
:1003200056454C494E475F44415441005A5F505234
:100330004F4245004155544F4C4556454C00505294
:10034000494E545F4A4F420050524F475245535313
:10035000004155544F5245504F52545F54454D50F3
:1003600000564F4C554D4554524943004545505257
:100370004F4D0053455249414C5F584F4E5F584FC7
:100380004646004649524D574152455F4E414D4504
:100390003A4D61726C696E20312E312E392028471A
:1003A00069746875622920534F555243455F434F26
:1003B00044455F55524C3A68747470733A2F2F67F6
:1003C00069746875622E636F6D2F4D61726C696E12
:1003D0004669726D776172652F4D61726C696E202E
:1003E00050524F544F434F4C5F56455253494F4E16
:1003F0003A312E30204D414348494E455F545950C3
:10040000453A3344205072696E74657220455854E1
:1004100052554445525F434F554E543A312055553D
:1004200049443A63656465326132662D3431613224
:100430002D343734382D396231322D6335356336FA
:10044000326633363766660A002F2F2000205400AC
:10045000205200416363656C65726174696F6E3A26
:100460002050002066697273740A005A00590058BF
:1004700000486F6D652000546F6F206661722066C2
:10048000726F6D207265666572656E636520706F50
:10049000696E740A00205A00205900580020204D2F
:1004A00061783A2000205A00205900580020204D41
:1004B000696E3A20004F6E20004F666600536F66EB
:1004C0007420656E6473746F70733A200020466CFC
:1004D0006F773A2000000136372603FFFFFF353CD7
:1004E0003D380EFFFFFF312E303E12FFFFFFFF2889
:1004F000FF0C0809FFFFFF1A1C18FFFF2A08440A17
:10050000FF4320643A0020693A0020703A00496EA7
:1005100076616C69642065787472756465720A002E
:1005200043290A0061626C656420286D696E20743D
:10053000656D702000436F6C64206578747275641B
:10054000657320617265200023646566696E6520AD
:1005500044454641554C545F4B6420002364656616
:10056000696E652044454641554C545F4B692000F7
:1005700023646566696E652044454641554C545F69
:100580004B702000504944204175746F74756E653E
:100590002066696E697368656421205075742074E3
:1005A0006865206C617374204B702C204B6920614E
:1005B0006E64204B6420636F6E7374616E7473207D
:1005C00066726F6D2062656C6F7720696E746F2044
:1005D000436F6E66696775726174696F6E2E680A23
:1005E00000504944204175746F74756E65206661D2
:1005F000696C6564212074696D656F75740A0045C6
:100600003120544845524D414C2052554E4157419E
:100610005900546865726D616C2052756E61776126
:10062000790045312048656174696E6720666169AB
:100630006C65640048656174696E67206661696C09
:10064000656400504944204175746F74756E65206F
:100650006661696C6564212054656D7065726174B2
:1006600075726520746F6F20686967680A00204B97
:10067000643A2000204B693A2000204B703A200059
:100680000A20436C617373696320504944200A0057
:100690002054753A2000204B753A2000206D617877
:1006A0003A2000206D696E3A200020643A20002034
:1006B000626961733A2000504944204175746F7437
:1006C000756E65206661696C6564212042616420F5
:1006D0006578747275646572206E756D6265720AF4
:1006E00000504944204175746F74756E65207374B1
:1006F0006172740A004E6F2063617365206C6967D4
:1007000068740A00454550524F4D20646973616218
:100710006C65640A0041637469766520457874727B
:10072000756465723A2000496E76616C6964206573
:10073000787472756465720A0024F4D43050C38EE4
:1007400020C2A24017828B7011127A910D816CD950
:100750000AA861E108C7586607615143061E4B5D50
:1007600005C145A7041A411104093D9803713931A7
:10077000034036DB0265339102D4305402802E1DD3
:1007800002632CEE01752AC501B028A00110278153
:10079000018F2564012B244B01E0223401AC211F81
:1007A000018D200D01801FFC00841EED00971DDFD0
:1007B00000B81CD200E61BC600201BBC00641AB2A5
:1007C00000B219A8000A19A0006A189900D117915F
:1007D0000040178B00B516840031167E00B31579E2
:1007E000003A157300C7146F0058146A00EE1366C0
:1007F000008813630025135E00C7125B006C12575C
:100800000015125400C111510070114F0021114BFD
:1008100000D61049008D10470046104400021042D7
:1008200000C00F4000800F3E00420F3C00060F3B0F
:1008300000CB0E3800930E37005C0E3500270E34C7
:1008400000F30D3200C10D3100900D3000600D2E0F
:1008500000320D2D00050D2C00D90C2B00AE0C29FB
:1008600000850C29005C0C2700350C27000E0C2697
:1008700000E80B2400C40B2400A00B23007D0B23F5
:10088000005A0B2100390B2100180B2000F80A1F19
:1008900000D90A1E00BB0A1E009D0A1D00800A1D09
:1008A00000630A1C00470A1B002C0A1B00110A1ACD
:1008B00000F7091A00DD091900C4091900AB09196C
:1008C00000920917007B091800630917004C0916EC
:1008D0000036091600200916000A091500F508154A
:1008E00000E0081400CC081400B8081400A4081490
:1008F00000900813007D0812006B081300580812BE
:1009000000460812003408110023081100120811D3
:100910000001081100F0071000E0071000D00710D8
:1009200000C0071000B0070F00A107100091070ECC
:100930000083070F0074070F0065070E0057070EAE
:100940000049070E003B070D002E070E0020070D83
:100950000013070D0006070D00F9060C00ED060D4B
:1009600000E0060C00D4060C00C8060C00BC060C07
:1009700000B0060C00A4060B0099060C008D060BB7
:100980000082060B0077060B006C060B0061060A5E
:100990000057060B004C060A0042060A0038060AF9
:1009A000002E060A0024060A001A060A001006098C
:1009B0000007060A00FD050900F4050900EB05091A
:1009C00000E2050900D9050900D0050900C705099D
:1009D00000BE050900B5050800AD050800A505091C
:1009E000009C050800940508008C05080084050893
:1009F000007C050800740508006C05070065050803
:100A0000005D050700560508004E0507004705076D
:100A1000004005080038050700310507002A0507D2
:100A200000230507001C050600160507000F050733
:100A3000000805060002050700FB040600F5040790
:100A400000EE040600E8040600E2040700DB0406EA
:100A500000D5040600CF040600C9040600C304063E
:100A600000BD040600B7040600B1040500AC04068E
:100A700000A6040600A00405009B040600950405DA
:100A800000900406008A0405008504050080040621
:100A9000007A04050075040500700405006B040568
:100AA0000066040500610405005C040500570405A8
:100AB00000520405004D04050048040500430405E8
:100AC000003E0404003A0405003504050030040427
:100AD000002C04050027040400230405001E040460
:100AE000001A04040016040500110404000D040497
:100AF00000090405000404040000040400FC0304CD
:100B000000F8030400F4030400F0030400EC030401
:100B100000E8030400E4030400E0030400DC030431
:100B200000D8030400D4030400D0030400CC030461
:100B300000C8030300C503030024F404D9201BC428
:100B40000C5C0E9804C4095F0265077101F405F995
:100B500000FB04B30048048700C103690058035533
:100B60000003034500BE023A008402310053022A0A
:100B7000002902250004022000E4011C00C801191C
:100B800000AF0117009801140084011300710110D7
:100B9000006101100051010E0043010D0036010BF0
:100BA000002B010B0020010B00150109000C0109AD
:100BB0000003010800FB000800F3000800EB000739
:100BC00000E4000600DE000600D8000600D20006A1
:100BD00000CC000500C7000500C2000500BD0004F0
:100BE00000B9000400B5000400B1000400AD000429
:100BF00000A9000400A5000300A20003009F000458
:100C0000009B00030098000300950002009300037E
:100C100000900003008D0002008B0003008800029A
:100C2000008600020084000300810002007F0002B1
:100C3000007D0002007B00020079000200770001C5
:100C400000760002007400020072000100710002D0
:100C5000006F0002006D0001006C0002006A0001DC
:100C600000690002006700010066000100650001E4
:100C700000640002006200010061000100600001E8
:100C8000005F0002005D0001005C0001005B0001EC
:100C9000005A0001005900010058000100570001EE
:100CA00000560001005500010054000100530000EF
:100CB00000530001005200010051000100500001EA
:100CC000004F0001004E0000004E0001004D0001E9
:100CD000004C0001004B0000004B0001004A0001E5
:100CE00000490001004800000048000100470001E1
:100CF00000460000004600010045000000450001DC
:100D000000440001004300000043000100420000D5
:100D100000420001004100000041000100400001CC
:100D2000003F0000003F0001003E0000003E0001C7
:100D3000003D0000003D0001003C0000003C0000C0
:100D4000003C0001003B0000003B0001003A0000B5
:100D5000003A0001003900000039000100380000AD
:100D600000380000003800010037000000370001A3
:100D7000003600000036000000360001003500009B
:100D80000035000000350001003400000034000090
:100D90000034000100330000003300000033000184
:100DA000003200000032000000320001003100007B
:100DB0000031000000310001003000000030000070
:100DC00000300001002F0000002F0000002F000065
:100DD000002F0001002E0000002E0000002E000158
:100DE000002D0000002D0000002D0000002D00014E
:100DF000002C0000002C0000002C0000002C000142
:100E0000002B0000002B0000002B0000002B000135
:100E1000002A0000002A0000002A0000002A000129
:100E2000002900000029000000290000002900001E
:100E30000029000100280000002800000028000010
:100E40000028000000280001002700000027000003
:100E500000270000002700000027000100260000F6
:100E600000260000002600000026000000260001E9
:100E700000250000002500000025000000250000DE
:100E800000250000002500010024000000240000CF
:100E900000240000002400000024000100230000C2
:100EA00000230000002300000023000000230000B6
:100EB00000230000002300010022000000220000A7
:100EC0000022000000220000002200000022000199
:100ED000002100000021000000210000002100008E
:100EE000002100000021000000210001002000007E
:100EF0000020000000200000002000000020000072
:100F0000002000000020000000200001001F000061
:100F1000001F0000001F0000001F0000001F000055
:100F2000001F0000001F0001001E0000001E000046
:100F3000001E0000001E000000043700001E2900F3
:100F400000511B00005810000010090000CC0400E4
:100F5000007802000041010000656E7175657565DD
:100F6000696E672022004C696E65204E756D626562
:100F700072206973206E6F74204C617374204C6909
:100F80006E65204E756D6265722B312C204C61733D
:100F900074204C696E653A20004B494C4C45442EF8
:100FA00020005072696E7465722073746F70706582
:100FB000642064756520746F206572726F72732E81
:100FC0002046697820746865206572726F722061AE
:100FD0006E6420757365204D39393920746F207225
:100FE0006573746172742E202854656D706572612A
:100FF000747572652069732072657365742E205351
:1010000065742069742061667465722072657374FA
:10101000617274696E67290A004E6F2043686563C8
:101020006B73756D2077697468206C696E65206ECE
:10103000756D6265722C204C617374204C696E650D
:101040003A2000636865636B73756D206D69736D1D
:10105000617463682C204C617374204C696E653A2E
:1010600020004D3131300020496E76616C6964207A
:1010700065787472756465722000000000000000DD
:10108000000000000000000048430000484300004A
:101090004843486F6D696E67206661696C656400DE
:1010A00050726F7465637465642050696E0A002025
:1010B0005A3A0020593A0020436F756E7420583A0E
:1010C0000020453A00205A3A0020593A00583A0088
:1010D0003A004361703A0000000000000000000088
:1010E000000000000048420000484200008040002C
:1010F0000000005761726E696E673A20486F6D6933
:101100006E672042756D702044697669736F722036
:101110003C20310A000202040000A0400000A04070
:1011200000000040000048430000484300004843DE
:10113000FFFFFF48617264636F6465642044656605
:1011400061756C742053657474696E6773204C6F9D
:10115000616465640A00B80B0000B80B000064000D
:101160000000102700000000964300009643000096
:10117000A0400000C8410000A0420000A0420000C2
:101180007A450000FA4320286D6D29002044002094
:10119000490020204D333031205000504944207305
:1011A000657474696E67733A0A00205A002059000A
:1011B00020204D323036205800486F6D65206F6614
:1011C000667365743A0A00204500205A00205900D1
:1011D00020580020540020530020204D323035206C
:1011E000510020453C6D61785F655F6A65726B3EBA
:1011F0000020583C6D61785F785F6A65726B3E20B5
:10120000593C6D61785F795F6A65726B3E205A3C2C
:101210006D61785F7A5F6A65726B3E0041647661EA
:101220006E6365643A20513C6D696E5F7365676DEE
:10123000656E745F74696D655F75733E20533C6DB8
:10124000696E5F66656564726174653E20543C6DCD
:10125000696E5F74726176656C5F66656564726104
:1012600074653E0020540020520020204D3230345E
:10127000205000416363656C65726174696F6E2014
:1012800028756E6974732F7332293A20503C70723E
:10129000696E745F616363656C3E20523C72657475
:1012A000726163745F616363656C3E20543C747269
:1012B0006176656C5F616363656C3E0A0020450082
:1012C000205A0020590020204D3230312058004D46
:1012D0006178696D756D20416363656C65726174D9
:1012E000696F6E2028756E6974732F7332293A0AFC
:1012F00000204500205A0020590020204D32303374
:101300002058004D6178696D756D20666565647261
:10131000617465732028756E6974732F73293A0A96
:1013200000204500205A0020590020204D3932204D
:10133000580053746570732070657220756E6974FF
:101340003A0A0020204D3230302044300A0020205C
:101350004D3230302044002044697361626C656412
:101360000A0046696C616D656E74207365747469FA
:101370006E67733A002020473231202020203B0046
:10138000545249474745524544006F70656E003AD4
:1013900020007A5F6D696E00795F6D696E00785F1D
:1013A0006D696E005265706F7274696E6720656E4C
:1013B0006473746F70207374617475730A007001C4
:1013C0002C0190012701B0012201C0011D01F00193
:1013D00018011002130130020E016002090190028F
:1013E0000401C002FF000003FA004003F50080037F
:1013F000F000D003EB002004E6007004E100E004FC
:10140000DC004005D700C005D2004006CD00D00664
:10141000C8008007C3003008BE00F008B900C0094A
:10142000B400B00AAF00B00BAA00D00CA500000EAB
:10143000A000500F9B00C0109600501291000014A5
:101440008C00C0158700B0178200B0197D00D01B3A
:101450007800001E730040206E0090226900F02486
:10146000640040275F0090295A00E02B5500102EA1
:10147000500020304B0010324600E03341009035E0
:101480003C001037370070383200A0392D00B03AD8
:101490002800A03B2300603C1E00103D1900903D39
:1014A0001400103E0F00703E0A00C03E0500003FD1
:1014B0000000403FFBFF803FF6FFC03FF1FF626549
:1014C000640A002C2073797374656D2073746F70D7
:1014D00070656421204865617465725F49443A20F3
:1014E0000045312048656174696E67206661696CEA
:1014F00065640048656174696E67206661696C6542
:1015000064004531204572723A204D415854454D92
:1015100050004D415854454D5020747269676765BD
:10152000726564004531204572723A204D494E542F
:10153000454D50004D494E54454D502074726967D9
:10154000676572656400202F0020403A000000218A
:1015500000240027002A002D003000330001010084
:1015600000040107010A0100002200250028002BC9
:10157000002E003100340002010000050108010BBB
:1015800001000020002300260029002C002F00323B
:10159000000001000003010601090105050505071A
:1015A0000508080808020202020A0A0808040404DE
:1015B000040101010101010101030303030303030A
:1015C00003040707070C0C0C0C0C0C0C0C02020299
:1015D0000206060606060606060B0B0B0B0B0B0B8C
:1015E0000B0102102020080810204010204080022B
:1015F0000102010804020101020408102040808059
:1016000040201008040201800402018040201008DC
:1016100004020108040201010204081020408001B4
:101620000204081020408000000A0B02090C0D0E75
:101630000807030401000000000000000000000093
:10164000000000000000000000000000000000009A
:101650000000001211100000000000000000000057
:10166000000000000000000000000000004B494C9A
:101670004C45442E2000202D20496E76616C696413
:10168000206578747275646572206E756D6265721E
:1016900020210A002020506C616E6E6572427566D2
:1016A00066657242797465733A20002046726565FA
:1016B000204D656D6F72793A2000436F6D70696CD3
:1016C00065643A2044656320203420323031380A82
:1016D00000207C20417574686F723A20286E6F6E0E
:1016E000652C2064656661756C7420636F6E666935
:1016F00067290A00323031382D30382D3031002042
:101700004C61737420557064617465643A200031D3
:101710002E312E390A004D61726C696E0020536FB4
:101720006674776172652052657365740A0020578C
:1017300061746368646F672052657365740A002082
:1017400042726F776E206F75742052657365740AEC
:10175000002045787465726E616C20526573657403
:101760000A00506F77657255700A00737461727465
:101770000A00205A3A0020593A0020583A00656E73
:101780006473746F7073206869743A2000556E6BCF
:101790006E6F776E20636F6D6D616E643A2022000C
:1017A00020746F6F206C6F6E67206578747275732C
:1017B000696F6E2070726576656E7465640A0020CC
:1017C000636F6C6420657874727573696F6E2070D6
:1017D000726576656E7465640A006563686F3A00C9
:1017E000526573656E643A20006F6B0062757379A1
:1017F0003A2070617573656420666F7220696E703F
:1018000075740A00627573793A2070617573656446
:1018100020666F7220757365720A00627573793A7B
:101820002070726F63657373696E670A004B494C71
:101830004C45442E20004B494C4C20636175736528
:101840006420627920746F6F206D75636820696E03
:101850006163746976652074696D65202D206375F8
:101860007272656E7420636F6D6D616E643A2000F4
:101870005072696E7465722068616C7465642E20A4
:101880006B696C6C28292063616C6C6564210A00AB
:101890004572726F723A00453120544845524D41AD
:1018A0004C2052554E4157415900546865726D6144
:1018B0006C2052756E6177617900E95A11241FBE60
:1018C000CFEFD1E2DEBFCDBF00E00CBF12E0A0E061
:1018D000B2E0E6E2F6ED00E00BBF02C007900D9229
:1018E000A835B107D9F72BE0A8E5B2E001C01D92F9
:1018F000AE3DB207E1F71CE0CEE5DCE000E006C05B
:1019000021970109802FFE010E94D66ACD35D107AB
:1019100080E00807A9F70E940A5B0C94116B0C94F5
:1019200000002F923F924F925F926F927F928F9220
:101930009F92AF92BF92CF92DF92EF92FF920F935E
:101940001F93CF93DF93CDB7DEB7C158D1090FB640
:10195000F894DEBF0FBECDBF21E02093B40B809181
:101960002A048D3409F4A9C7843511F40C94F923A1
:10197000873411F00C943C24809128049091290420
:101980008430910509F444C544F497FD92C7209131
:101990002B028230910524F51EC08A35910509F489
:1019A000CAC624F44C9709F468C583C78B359105E2
:1019B00009F4C5C68C35910509F07BC74EE3242E8A
:1019C00042E0342E51E5C52E53E0D52EE12CF12C0A
:1019D00000E010E0F1C621110C9443240C943E2445
:1019E000222311F40C943E2411E0029709F010E038
:1019F0000E942F3482E50E942334882309F42AC1EF
:101A00000E94A9336B017C014090F4035090F503D0
:101A10006090F6037090F7038091F8039091F903BA
:101A2000A091FA03B091FB038AA39BA3ACA3BDA32F
:101A300020915E0330915F034091600350916103F8
:101A40002EA33FA348A759A78091620390916303F7
:101A5000A0916403B09165038AA79BA7ACA7BDA71B
:101A600020E030E0A901C701B6010E94E1638823AC
:101A700009F4B4C4A30192016EA17FA188A599A520
:101A80000E94E16381110DC02AA13BA14CA15DA17F
:101A90006AA57BA58CA59DA50E94E163882309F416
:101AA0009DC420E030E0A901C701B6010E94E163B6
:101AB000881F8827881F181309C020E030E040E8FD
:101AC0005FE32AAF3BAF4CAF5DAF08C080E090E072
:101AD000A0E8BFEB8AAF9BAFACAFBDAFA301920153
:101AE0006EA17FA188A599A50E94E1676AAB7BAB37
:101AF0008CAB9DAB2AA13BA14CA15DA16AA57BA5A6
:101B00008CA59DA50E94E1676EAB7FAB88AF99AFB6
:101B10002AA93BA94CA95DA9CA01B9010E94466442
:101B20004B015C012EA93FA948AD59ADCA01B901CD
:101B30000E9446649B01AC01C501B4010E94E267AA
:101B40000E944D6A6EA77FA788AB99AB20E030E07A
:101B500040E05FE30E9446644B015C01A7019601EF
:101B6000C701B6010E9446646B017C01A501940186
:101B7000C501B4010E9446649B01AC01C701B601D6
:101B80000E94E1670E944D6A9B01AC016AAD7BAD8A
:101B90008CAD9DAD0E9446644B015C012EA13FA11E
:101BA00048A559A5C301B2010E94E26720E030E0D8
:101BB00040E05FE30E9446646B017C016EA97FA94F
:101BC00088AD99AD90582EA53FA548A959A90E9466
:101BD000BE689B01AC01C501B4010E9446649B0133
:101BE000AC01C701B6010E94E267A30192010E9405
:101BF000E1676B017C012AA53BA54CA55DA56AA107
:101C00007BA18CA19DA10E94E26720E030E040E032
:101C10005FE30E9446642B013C012EA53FA548A925
:101C200059A96AA97BA98CA99DA90E94BE689B019C
:101C3000AC01C501B4010E9446649B01AC01C30123
:101C4000B2010E94E2672AA13BA14CA15DA10E94C2
:101C5000E16714C089E40E942334882329F00E949C
:101C6000A9336B017C0103C0C12CD12C76018AE41D
:101C70000E9423348823D9F00E94A9336AA77BA746
:101C80008CA79DA720E030E0A901C701B6010E9402
:101C9000E16381111AC020E030E0A9016AA57BA5AB
:101CA0008CA59DA50E94E16381110FC097C320E020
:101CB00030E0A901C701B6010E94E163882309F45D
:101CC0008DC31AA61BA61CA61DA6A70196015058D7
:101CD0002AA33BA34CA35DA38AA59BA5ACA5BDA548
:101CE000B0588EA39FA3A8A7B9A7CA01B9010E94A3
:101CF00046644B015C012EA13FA148A559A5CA012C
:101D0000B9010E9446649B01AC01C501B4010E9467
:101D1000E2670E944D6A2A966CAF7DAF8EAF9FAF8F
:101D20002A972091F4033091F5034091F6035091E6
:101D3000F7032EA73FA748AB59ABA70196016EA5A5
:101D40007FA588A999A90E94E2676AAF7BAF8CAF93
:101D50009DAF8091F8039091F903A091FA03B0919F
:101D6000FB038AAB9BABACABBDAB2AA53BA54CA59B
:101D70005DA5BC01CD010E94E2672E966CAF7DAFE0
:101D80008EAF9FAF2E9720915E0330915F034091FD
:101D90006003509161032EAB3FAB48AF59AF2AAD02
:101DA0003BAD4CAD5DAD6EA97FA988AD99AD0E94EC
:101DB000E1676B017C018091620390916303A091C4
:101DC0006403B091650322968CAF9DAFAEAFBFAFF9
:101DD00022972E962CAD3DAD4EAD5FAD2E97BC013A
:101DE000CD010E94E1674B015C012091FC03309121
:101DF000FD034091FE035091FF0326962CAF3DAFAB
:101E00004EAF5FAF26976091660370916703809134
:101E10006803909169030E94E1672B013C01809166
:101E20006A0390916B03A0916C03B0916D03669669
:101E30008CAF9DAFAEAFBFAF6697209100043091DD
:101E40000104409102045091030462962CAF3DAF0F
:101E50004EAF5FAF6297A70196016AA17BA18CA1EB
:101E60009DA10E9446646A966CAF7DAF8EAF9FAF16
:101E70006A97A50194016EA17FA188A599A50E94EA
:101E800046649B01AC016A966CAD7DAD8EAD9FAD95
:101E90006A970E94E2676A966CAF7DAF8EAF9FAF84
:101EA0006A97A50194016AA17BA18CA19DA10E94C2
:101EB00046644B015C01A70196016EA17FA188A534
:101EC00099A50E9446649B01AC01C501B4010E9422
:101ED000E1676A962CAD3DAD4EAD5FAD6A970E944D
:101EE00055686B017C0120E030E0A9010E94E163AC
:101EF00087FF0AC02BED3FE049EC50E4C701B60173
:101F00000E94E2676B017C01112351F02BED3FE051
:101F100049EC50E4C701B6010E94E1676B017C0106
:101F200020E030E0A901C701B6010E94E163811100
:101F300022C02EA93FA948AD59AD6EA57FA588A99D
:101F400099A90E94E163811116C022962CAD3DAD86
:101F50004EAD5FAD22976AA97BA98CA99DA90E946D
:101F6000E163811108C0EBEDCE2EEFE0DE2EE9EC4F
:101F7000EE2EE0E4FE2EA70196012A966CAD7DAD13
:101F80008EAD9FAD2A970E9446644B015C0120E014
:101F900030E0A901C301B2010E94E1638823C9F0C6
:101FA000A5019401C501B4010E9446644B015C0186
:101FB000A3019201C301B2010E9446649B01AC01DE
:101FC000C501B4010E94E2670E944D6A4B015C01A9
:101FD0000DC020E030E0A901C501B4010E94086AEB
:101FE00087FF04C0B7FAB094B7F8B0942FE632E197
:101FF00043E85AE3C501B4010E94E16387FF02C0D0
:102000000C943E24C501B4010E9457690E942B69BB
:102010001B01672B19F422242394312CB10180E099
:1020200090E00E94E5634B015C019B01AC01C7019C
:10203000B6010E94BE686EA77FA788AB99ABA501C9
:102040009401C301B2010E94BE682A966CAF7DAFB5
:102050008EAF9FAF2A9762962CAD3DAD4EAD5FAD72
:10206000629766966CAD7DAD8EAD9FAD66970E9412
:10207000E167A50194010E94BE6866966CAF7DAFD2
:102080008EAF9FAF66972EA53FA548A959A9CA0153
:10209000B9010E94466420E030E040E05FE30E9426
:1020A00046649B01AC0160E070E080E89FE30E9421
:1020B000E16722966CAF7DAF8EAF9FAF22972696D9
:1020C0008CAD9DADAEADBFAD269789879A87AB87A6
:1020D000BC8762962CAD3DAD4EAD5FAD62972D874E
:1020E0003E874F87588B6091050270910602072E3C
:1020F000000C880B990B0E94E7632091000230913D
:10210000010240910202509103020E9446642AE0BB
:1021100037ED43E25CE30E9446646E8F7F8F88A3B5
:1021200099A30E9414459B01AC0128533F4F4F4F88
:102130005F4F26962CAF3DAF4EAF5FAF26974AA0BC
:102140005BA06CA07DA041E050E05FAB4EAB59E1DD
:102150005AAB2EA93FA92215330509F418C10E94D4
:102160003F480E941445DC01CB0126962CAD3DADC5
:102170004EAD5FAD2697821B930BA40BB50BB7FD3D
:1021800010C00E9414459B01AC0128533F4F4F4F94
:102190005F4F26962CAF3DAF4EAF5FAF26970E94A4
:1021A000BA563AA931503AAB332309F441C02296CA
:1021B0002CAD3DAD4EAD5FAD22976EA17FA188A540
:1021C00099A50E9446646B017C012EA53FA548A9F4
:1021D00059A9B201C3010E944664A70196010E9459
:1021E000E2677B018C0122962CAD3DAD4EAD5FAD1B
:1021F0002297B201C3010E9446644B015C012EA5E7
:102200003FA548A959A96EA17FA188A599A50E94BB
:1022100046649B01AC01C501B4010E94E1672B013A
:102220003C01C701D8018EA39FA3A8A7B9A751C09D
:102230004EA95FA9BA0180E090E00E94E5632EA557
:102240003FA548A959A90E9446644B015C010E9420
:10225000BB686B017C01C501B4010E94436A4B015C
:102260005C01A70196016AA17BA18CA19DA10E949E
:1022700046642B013C01A50194016AA57BA58CA5B0
:102280009DA50E9446649B01AC01C301B2010E945E
:10229000E2672B013C01A50194016AA17BA18CA1FD
:1022A0009DA10E9446644B015C01A70196016AA5AD
:1022B0007BA58CA59DA50E9446649B01AC01C50130
:1022C000B4010E94E1676EA37FA388A799A759E193
:1022D0005AAB9201A3016AAD7BAD8CAD9DAD0E945E
:1022E000E26769837A838B839C832EA13FA148A5F3
:1022F00059A52E966CAD7DAD8EAD9FAD2E970E94EB
:10230000E2676D837E838F8398872A962CAD3DADDF
:102310004EAD5FAD2A9769857A858B859C850E9435
:10232000E26769877A878B879C8766962CAD3DAD7F
:102330004EAD5FAD66976D857E858F8598890E94CD
:10234000E2676D877E878F87988B80910402882350
:1023500021F0CE0101960E946540E09064021E8A41
:102360001F8A188E198ECE0146966C018E01025E70
:102370001F4F9E01235F3F4FAE01475F5F4FBE017E
:102380006B5F7F4F45970E941149811121C0E090FA
:1023900064021A8E1B8E1C8E1D8EDE015A966D01F4
:1023A0008E01025E1F4F2AE633E046E653E062E606
:1023B00073E08EE593E00E94114980E1EEE5F3E0E1
:1023C000A4EFB3E001900D928A95E1F70C943E24BE
:1023D000EEA9FFA93196FFABEEABBBCEE0E9F8E189
:1023E00084918F010F5F1F4F882321F00E94AF342B
:1023F000F801F6CFE3E1F2E084918F010F5F1F4F08
:10240000882311F40C943E240E94AF34F801F4CFD9
:1024100080E50E942334882329F00E9469336B01F0
:102420007C0103C0C12CD12C760183E50E942334AA
:10243000882361F00E94A93320E030E04AE754E4A9
:102440000E9446640E942B696B017C010E94F23855
:102450000E941445C60ED71EE81EF91E0E941445A0
:10246000DC01CB018C199D09AE09BF09B7FD02C083
:102470000C943E240E94BA56F1CF8091E7038770F6
:10248000873071F48FE40E942334882319F00E946E
:102490009A3303C08FE40E94DC3381110C943E24F4
:1024A0000E94F2388091000290910102A0910202F4
:1024B000B091030280936C0290936D02A0936E0220
:1024C000B0936F02809105029091060290936B0287
:1024D00080936A0284E690E090930602809305025E
:1024E00011E01093E60388E50E94DC33282E89E58D
:1024F0000E94DC33082F8AE50E94DC33382E21103D
:1025000004C0011104C0182705C0011102C010E069
:1025100001C0182F80E1E4EFF3E0AEE5B3E00190F5
:102520000D928A95E1F782E50E942334882369F0B1
:102530000E94A9336B017C0120E030E0A9010E94D8
:10254000E163882309F4BFC006C0C12CD12C60EA26
:10255000E62E60E4F62E111105C0211003C0002301
:1025600009F4C2C0C0926603D0926703E092680388
:10257000F09269038090FC039090FD03A090FE030D
:10258000B090FF03A5019401C701B6010E94086A3B
:1025900018160CF098C08091F8039091F903A0915F
:1025A000FA03B091FB038AA39BA3ACA3BDA3209124
:1025B000F4033091F5034091F6035091F7032EA3F5
:1025C0003FA348A759A78091000290910102A091D2
:1025D0000202B09103028AA79BA7ACA7BDA7EBEEAE
:1025E000F0E14590559065907490A7019601C50162
:1025F000B4010E94E16387FF12C040920002509232
:1026000001026092020270920302C092FC03D09217
:10261000FD03E092FE03F092FF030E94233285E562
:1026200095E5A5E0B3E48093000290930102A093A6
:102630000202B09303022EA13FA148A559A5209301
:10264000F4033093F5034093F6035093F7038AA104
:102650009BA1ACA1BDA18093F8039093F903A09333
:10266000FA03B093FB030E942332A7019601609105
:10267000FC037091FD038091FE039091FF030E9483
:10268000086A181694F44092000250920102609277
:10269000020270920302C092FC03D092FD03E0920A
:1026A000FE03F092FF030E9423320E94F2382AA513
:1026B0003BA54CA55DA520930002309301024093F9
:1026C000020250930302111105C0211003C0011131
:1026D00006C00AC080E00E94F7401123C1F381E0E8
:1026E0000E94F740111102C0332019F082E00E94CD
:1026F000F7400E948F328091E5038093E60380913A
:102700006C0290916D02A0916E02B0916F02809365
:10271000000290930102A0930202B0930302809101
:102720006A0290916B0290930602809305020E94C8
:1027300065370C943E24109269020C943E24209339
:1027400069020C943E240E94A9332B013C011330F2
:1027500059F0F701E85AFD4F2081318142815381C0
:102760000E94E1672B013C01F701EC50FC4F2081F6
:10277000318142815381C301B2010E94E1674B0163
:102780005C012DEB37E346E855EB0E94086A87FDB4
:102790001BC02DEB37E346E855E3C501B4010E94A9
:1027A000E16318168CF01F5FB4E0CB0ED11CE4E09F
:1027B000EE0EF11C143039F1D1018D911D010E94F2
:1027C0002334882381F3BFCF133051F440920004A7
:1027D00050920104609202047092030401E0E3CF7E
:1027E000A5019401F60160817181828193810E942B
:1027F000E267D6016D937D938D939C931397812F00
:102800000E944F32D0CF002309F44FC020E030E0C7
:10281000A9016091000470910104809102049091DB
:1028200003040E94E26720911B0B30911C0B409126
:102830001D0B50911E0B0E9446640E94136A609308
:102840000A0B70930B0B80930C0B90930D0B9091D4
:10285000FD0A8091FC0A981719F00E947B3025C070
:102860000E94F23880916F0081FB992790F981FFD7
:1028700005C080916F008D7F80936F0040910A0B9F
:1028800050910B0B60910C0B70910D0B40939B02C0
:1028900050939C0260939D0270939E02992329F0AD
:1028A00080916F00826080936F000E9465370C9466
:1028B0003E240E9454560C943E248091280490910A
:1028C00029048637910509F4C1C60CF085C08C3502
:1028D000910509F496C50CF045C08C34910509F4B6
:1028E0001BC2DCF48F31910509F42BC14CF481310A
:1028F000910509F41CC1429709F433C50C94F623E1
:102900008A32910509F4C0C18B34910511F00C9401
:10291000F6230E94A5270C943E248235910509F4E4
:1029200017C5A4F48D34910509F40BC281359105C6
:1029300011F00C94F6230E94DE460E940239109298
:1029400025061092240600E010E0EBC484359105C2
:1029500009F407C50CF400C58535910509F436C5A1
:102960000C94F6238E36910509F41CC2B4F48A3611
:10297000910509F4A6C454F48836910509F4E5C11B
:102980008936910509F4C6C20C94F6238C3691055C
:1029900009F48CC20CF4B3C4FFC28137910509F469
:1029A0008DC26CF48F36910509F40FC28037910502
:1029B00011F00C94F62387E892E00E948A56833740
:1029C000910509F4E5C50CF4A5C58537910511F409
:1029D0000C943E240C94F623823E910511F40C9441
:1029E000631F0CF04AC08B3C910509F4F1C61CF53D
:1029F0008937910509F47BC684F48737910509F47A
:102A000072C68837910511F00C94F62381E080930B
:102A1000E6038093E5030C943E24883C910509F479
:102A20006CC6893C910509F4B0C68B39910511F04B
:102A30000C94F6238AC28E3C910509F4C8C754F45D
:102A40008C3C910509F4E3C68D3C910509F454C70B
:102A50000C94F6238C3D910511F40C94E81E8D3DE9
:102A6000910511F40C94F51E833D910511F00C9421
:102A7000F623EAEDF7E10C94161E8C3AF1E09F077D
:102A800009F4C8C744F58F3231E0930711F40C9470
:102A900081206CF48D3251E0950711F40C948C1F59
:102AA0008E32914011F40C942D200C94F623803931
:102AB000B1E09B0711F40C94B8238A39E1E09E073A
:102AC00009F4F8C18336914011F00C94F623E0E943
:102AD000F8E10C94A123863F21E0920711F40C94B5
:102AE000D42394F4843F41E0940711F40C94BB2365
:102AF000853F914011F00C94F6230E941C3F80E02A
:102B00000E94F63B0C943E248B38A3E09A0711F404
:102B10000C943E24873EB3E09B0711F40C94E3230E
:102B2000873F914011F00C94F6230C94D7235F98C3
:102B30008A988091080181708093060112980C9404
:102B40003E240E9471273CE3C32ED12CE12CF12CB2
:102B5000A70196010E94A667762E672ECA01B901C9
:102B6000A70196010E94A6676B017C01CA01B90109
:102B700028E130E040E050E00E94A6674B015C0194
:102B8000C9016DE671E00E94A66A8E010F5F1F4FBA
:102B90006115710599F06F927F92DF92CF929F92AB
:102BA0008F929F938F937F936F9381E592E09F9392
:102BB0008F931F930F930E94B26326C0009789F0F2
:102BC0006F927F92DF92CF929F928F929F938F937B
:102BD00081E492E09F938F931F930F930E94B263BF
:102BE00013C081149104A104B104B1F06F927F92DB
:102BF000DF92CF929F928F9285E392E09F938F9383
:102C00001F930F930E94B2630FB6F894DEBF0FBEFE
:102C1000CDBFEAEDF7E123C0C114D104E104F10412
:102C200069F06F927F92DF92CF928DE292E09F9354
:102C30008F931F930F930E94B263E6CF6F927F92A0
:102C400089E292E09F938F931F930F930E94B26348
:102C50000F900F900F900F900F900F90DACF8491FC
:102C60007F01BFEFEB1AFB0A882321F00E94AF34EB
:102C7000F701F5CFB80185E692E00E94C12F8AE006
:102C80000E94AF340C943E2483E50E9423348823B1
:102C900011F40C943E240E948933E82E80E50E94B2
:102CA0002334882339F00E948933182F87FF03C00B
:102CB0000C943E241DE089E40E942334882349F0CB
:102CC0000E949A33811111C0E5EDF4E08DE28E0F80
:102CD00007C089E40E94DC33F5CF31968E1729F0C6
:102CE00094911913FACF0C94682561E0812F0E940A
:102CF000D9436E2D812F0E94AA43F12CB701812F59
:102D00000E941544193011F00C943E24F0922506CF
:102D1000E09224060C943E248091E403813011F06B
:102D20000C943E2482E08093E4030E941445609357
:102D3000DC037093DD038093DE039093DF030C9438
:102D40003E240E94DE270C943E2488E690E00E94F8
:102D5000D13681110C943E2480910E0B83FF02C06A
:102D60000C943E2483E50E9423348823B9F00E940A
:102D7000A9330E942669709395036093940380E0C1
:102D80000E9494460E94A93320E030E04AEA52E4CF
:102D90000E94E163181614F00E94DE270E94E72FBC
:102DA0000C943E248EE40E942334882311F40C9466
:102DB0003E240E9479336093CC0B7093CD0B8093AB
:102DC000CE0B9093CF0B0C943E2483E50E94DC3312
:102DD000882359F083E50E942334882319F00E9448
:102DE000893301C080E080930E0BEAEDF7E1849116
:102DF0008F010F5F1F4F882321F00E94AF34F8012D
:102E0000F6CFE0E8F2E084918F010F5F1F4F882337
:102E100021F00E94AF34F801F6CF80910E0B882389
:102E2000A1F122E7C22E22E0D22EE12CF12C20E0EB
:102E300080910E0B90E00E2C02C0959587950A9418
:102E4000E2F780FF17C0BB24B394B20E222319F01F
:102E50008CE20E94AF34F60125913491F9018491FE
:102E600089010F5F1F4F882321F00E94AF34980122
:102E7000F5CF2B2DFFEFEF1AFF0A32E0C30ED11C66
:102E800045E0E416F104A1F60CC0ECE7F2E0849111
:102E90008F010F5F1F4F882321F00E94AF34F8018C
:102EA000F6CF8AE00E94AF340C943E2410920702C1
:102EB0000C943E240E9498320C943E2483E50E9498
:102EC0002334882369F00E9489338D3320F4809362
:102ED00039020C943E248CE3809339020C943E24F6
:102EE000EAEDF7E184918F010F5F1F4F882321F0F6
:102EF0000E94AF34F801F6CF4091390250E060E013
:102F000070E080E992E00E94732F8AE00E94AF3463
:102F10000C943E2489E690E00E94D136811111C0C4
:102F2000E7E9F2E084918F010F5F1F4F882321F0C2
:102F30000E94AF34F801F6CF0E9406468AE00E9454
:102F4000AF341092B40B0C94222783E50E942334F3
:102F5000882311F40C943E240E948933182F8D335A
:102F600008F01CE31093C10B0E9414456B017C0117
:102F7000212F30E0A8EEB3E00E94D267C60ED71E24
:102F8000E81EF91EC092BD0BD092BE0BE092BF0BA3
:102F9000F092C00B0C943E248DE690E00E94D13656
:102FA00081110C943E2480910E0B83FF02C00C947F
:102FB0003E2483E50E9423348AAF811105C082E557
:102FC0000E9423348823D1F00E94A9330E942669ED
:102FD000709395036093940380E00E9494460E944E
:102FE000A93320E030E04AEA52E40E94E163181677
:102FF00014F40C9435250E94DE2781E0ED968FAF06
:10300000ED970E94E72FED968FADED97882311F491
:103010000C943E2481E0809307021EA21FA218A6F2
:1030200019A62E961CAE1DAE1EAE1FAE2E971AA26E
:103030001EAE5CE323965FAF23978CE12F968FAF94
:103040002F9796E427969FAF2797C12CD12C80E825
:10305000E82E9FEBF92E812C912C54016091940362
:1030600070919503072E000C880B990B0E94E76363
:10307000162F072F782E692E262F372F482F592FDE
:10308000B601C7010E94E1638823D9F02091270689
:10309000309128064091290650912A06612F702F01
:1030A000872D962D0E94E163881F8827881F8AA399
:1030B000AAADAA2351F0882341F0809107020C9415
:1030C0003E241C2D0D2D7E2C6F2C0E9414456B016F
:1030D0007C01DC01CB012E962CAD3DAD4EAD5FAD3C
:1030E0002E97821B930BA40BB50BB7FD3DC0D701E8
:1030F000C60188519C4FAF4FBF4F2E968CAF9DAFEE
:10310000AEAFBFAF2E970E940646EAE9F2E0849187
:103110002F019FEF491A590A882321F00E94AF34EA
:10312000F201F5CF81149104A104B104B9F0D501E5
:10313000C401805F984DAF4FBF4FBC01CD016C19EA
:103140007D098E099F0928EE33E040E050E00E949F
:10315000A667CA01B9010E940C3703C08FE30E9421
:10316000AF348AE00E94AF340E94BA560E941445E0
:103170006093B50B7093B60B8093B70B9093B80B1D
:10318000A0912706AAA7B0912806BEA7E09129061C
:10319000EAABF0912A06FEAB9D01AF01612F702FC3
:1031A000872D962D0E94E1671B012C0120E030E065
:1031B000A9010E94086A87FF04C057FA509457F883
:1031C000509481149104A104B10459F420E030E03A
:1031D00040E85FE3C201B1010E94E16387FF0DC0D7
:1031E0000AC020E030E040E450E4C201B1010E9496
:1031F000086A181614F4460157012AA1222309F47B
:1032000044C08EA19FA1A8A5B9A5892B8A2B8B2B81
:1032100061F0D701C6012EA13FA148A559A5821B87
:10322000930BA40BB50BB7FD30C02AA53EA54AA948
:103230005EA96EAD23967FAD23972F968FAD2F9706
:1032400027969FAD27970E94E16720E030E040EC91
:103250005FE30E94E16387FD30CFD701C601805A4A
:103260009541AF4FBF4F8EA39FA3A8A7B9A79AA51B
:103270009EAFAEA52396AFAF2397BAA92F96BFAF47
:103280002F97EEA92796EFAF279780910702882303
:1032900009F413CF81149104A104B10429F4C12EBF
:1032A000D02EE72CF62CDACEF0E1CF1AF7E2DF0AC7
:1032B000E108F108C818D908EA08FB08F7FEFDCEB6
:1032C000EECF80E50E942334811106C083E50E9481
:1032D0002334882361F006C00E94893381110C9445
:1032E0003E24F4CF0E9479336F3F710510F06FEFE9
:1032F00070E070932506609324060C943E2480E5CC
:103300000E942334811106C01092250610922406D3
:103310000C943E240E947933672B11F00C943E24C8
:10332000F3CF62E370E080E090E00E94DC440E9412
:103330003F480F5F1F4F0331110599F762E370E0BB
:1033400080E090E00E94DC440E943F480C943E24C0
:10335000109268020C943E2481E0809368020C94E1
:103360003E2483E50E9423348823A1F00E94A933E0
:1033700020E030E04AE754E40E9446640E942B6952
:1033800060933A0270933B0280933C0290933D021B
:103390000C943E2488E50E94DC3381110C9438257E
:1033A00089E50E94DC3381110C9438258AE50E945E
:1033B000DC3381110C94382585E40E94DC338111C3
:1033C0000C9438250E9402390C943E2483E50E9417
:1033D000DC33882311F40C943E240E94A93320E0AE
:1033E00030E04AE754E40E9446640E942B696093EF
:1033F000B90B7093BA0B8093BB0B9093BC0B0C94DE
:103400003E241EE3C12E12E0D12E0FE0E02E0BE091
:10341000F02E10E0D6018D916D010E94DC338823DF
:1034200009F46DC0133009F063C00E94A9334B0149
:103430005C0120E030E040EA51E40E94E16387FF54
:103440004EC0A501940160911B0B70911C0B8091E3
:103450001D0B90911E0B0E94BE682B013C019B012D
:10346000AC016091D3057091D4058091D505909100
:10347000D6050E9446646093D3057093D40580936B
:10348000D5059093D605A301920160910306709132
:10349000040680910506909106060E94466460939A
:1034A00003067093040680930506909306066091C8
:1034B000E3057091E4058091E5059091E6050E9491
:1034C000E563A30192010E9446640E942B69609308
:1034D000E3057093E4058093E5059093E6058092FB
:1034E0001B0B90921C0BA0921D0BB0921E0B07C0E1
:1034F0000E94A933F70160837183828393831F5FE6
:10350000F4E0EF0EF11C143009F084CF0E94B231C8
:103510000C943E240E94F23883E50E9423348823D1
:1035200009F4C3C90E9479336230710509F0BDC93D
:103530000E9468598BE50E94AF346091A80B70918E
:10354000A90B8091AA0B9091AB0B42E00E94283806
:103550004091AC0B5091AD0B6091AE0B7091AF0BE5
:1035600081EA92E00E948E2F4091B00B5091B10BF6
:103570006091B20B7091B30B8EE992E00E948E2F96
:103580008DE50E94AF348AE00E94AF340C943E2453
:10359000E3E8F3E084918F010F5F1F4F882321F050
:1035A0000E94AF34F801F6CF60E083E793E00E9419
:1035B000263760E08CE693E00E94263761E081E6E2
:1035C00093E00E94263761E081E593E00E94263770
:1035D00060E088E493E00E94263761E08EE393E0A8
:1035E0000E94263760E084E393E00E94263760E083
:1035F0008CE293E00E94263760E08EE193E00E9427
:10360000263760E080E193E00E94263760E081E0A9
:1036100093E00E94263760E083EF92E00E94263715
:1036200060E08DED92E00E94263760E08CEC92E045
:103630000E94263760E087EB92E00E94263761E027
:1036400084EA92E00E9426370C943E2400912604DE
:103650001091270483E0D12C40E08150E9F0D8019B
:103660009C91292F2B7F2134C1F711962C91213366
:10367000A1F7913421F0953421F441E002C0DD241A
:10368000D39498012E5F3F4F89012F5F3F4FF80180
:1036900090819032C9F3E1CF442369F0EAEDF7E17C
:1036A00084917F012FEFE21AF20A882321F00E9411
:1036B000AF34F701F5CFDD2069F0E9E4F4E084915F
:1036C0007F013FEFE31AF30A882321F00E94AF3411
:1036D000F701F5CFD8018D918D01882309F4E1CB55
:1036E0000E94AF34F7CF0E94D03B0C943E2410923E
:1036F000E6031092E5030C943E2488EC90E00E94CF
:10370000D13681110C943E2484E40E94DC3388235A
:10371000C1F10E94A93311E020E030E0A9010E942C
:10372000E163811101C010E010937A03112349F184
:103730000E94A933E0919303B4E0EB9FF0011124C0
:10374000E158FC4F608371838283938320E030E0F3
:10375000A90160917F037091800380918103909112
:1037600082030E94E16381110CC080E090E0A0E43C
:10377000B0E480937F0390938003A0938103B09380
:1037800082030E9440390C943E24A0E7EA2EA2E076
:10379000FA2E0EE312E0B4E0DB2ED00EF801819198
:1037A0008F010E94DC33882351F00E94A9330E94CC
:1037B0002B69D7016D937D938D939C931397B4E000
:1037C000EB0EF11CD012EACF0E9411300C943E2473
:1037D000E7EFEE2EE5E0FE2E0EE312E0F4E0DF2E42
:1037E000D00EF80181918F010E94DC33882341F0D3
:1037F0000E94A933D7016D937D938D939C9313976A
:10380000B4E0EB0EF11CD012ECCF0C943E2483E517
:103810000E9423348823A1F00E94A9336093EF050E
:103820007093F0058093F1059093F2056093EB059A
:103830007093EC058093ED059093EE0510E001C0C8
:1038400011E080E50E942334882359F00E94A933B7
:103850006093EF057093F0058093F1059093F20566
:1038600010E082E50E942334882359F00E94A93396
:103870006093F3057093F4058093F5059093F60536
:1038800010E084E50E942334882359F00E94A93374
:103890006093EB057093EC058093ED059093EE0536
:1038A000EDC7112309F4EAC74091EF055091F005E7
:1038B0006091F1057091F20583E594E00E948E2FEE
:1038C0004091F3055091F4056091F5057091F6056E
:1038D00080E594E00E948E2F4091EB055091EC051D
:1038E0006091ED057091EE058DE494E00E948E2FBD
:1038F0008AE00E94AF34C2C781E50E94DC3388238E
:1039000051F00E9469336093070670930806809314
:10391000090690930A0683E50E94DC33882351F060
:103920000E94A9336093200670932106809322069B
:103930009093230684E50E94DC33882351F00E9493
:10394000A93360931C0670931D0680931E06909306
:103950001F0688E50E94DC33882351F00E94A933BA
:103960006093C7057093C8058093C9059093CA05F5
:1039700089E50E94DC33882351F00E94A9336093CB
:10398000CB057093CC058093CD059093CE058AE549
:103990000E94DC33882351F00E94A9336093CF0545
:1039A0007093D0058093D1059093D20585E40E9451
:1039B000DC33882309F462C70E94A9336093D305DE
:1039C0007093D4058093D5059093D60557C76EE3C1
:1039D000C62E62E0D62E78EEE72E73E0F72E10E0CA
:1039E000F60181916F010E94DC33882359F00E9417
:1039F000A933D7016D937D938D939C931397812F5A
:103A00000E944F321F5FB4E0EB0EF11C133041F700
:103A10000C94551410915D03812F8170D82ED226FD
:103A200011FB002700F9022712FB112710F91227BA
:103A3000D11002C0002319F0EAEDF7E114C0111112
:103A4000FBCF57ED852E50E1952E84EF93E09BA39D
:103A50008AA3DE0111965D0100E311E11D01B3E0CF
:103A6000B00FBEA352C084917F012FEFE21AF20A79
:103A7000882321F00E94AF34F701F5CFE1E7F4E0AD
:103A800084917F013FEFE31AF30A882321F00E941B
:103A9000AF34F701F5CFDD2069F0EFE6F4E0849173
:103AA0007F014FEFE41AF40A882321F00E94AF341B
:103AB000F701F5CF002369F0EDE6F4E084917F0192
:103AC0005FEFE51AF50A882321F00E94AF34F70171
:103AD000F5CF111103C0E3E6F4E00CC0EBE6F4E02F
:103AE00084918F010F5F1F4F8823A9F30E94AF3489
:103AF000F801F6CF84918F010F5F1F4F882309F4DF
:103B0000BDC60E94AF34F801F5CFF40165917591FF
:103B100085919491EAA1FBA1C190D190E190F1909F
:103B2000FBA3EAA3A70196010E94E1672B013C01D8
:103B300020E030E040EA51EC0E94086A87FD11C0A5
:103B400020E030E040EA51E4C301B2010E94E163A9
:103B500018163CF0D1014D925D926D927C921397B4
:103B60000EC0F80184911816ACF7F7FAF094F7F844
:103B7000F094D101CD92DD92ED92FC921397D10198
:103B8000CD90DD90ED90FD901D0120E030E040EA09
:103B900051ECC701B6010E94086A87FF03C0E0E943
:103BA000F8E10BC020E030E040EA51E4C701B60183
:103BB0000E94E1631816C4F4F2CF84918F010F5F65
:103BC0001F4F882321F00E94AF34F801F6CFE7E7BA
:103BD000F4E084918F010F5F1F4F882309F44EC6D4
:103BE0000E94AF34F801F5CFB4E08B0E911C0F5F4B
:103BF0001F4FEEA1E01389CF48EEE42E43E0F42EF0
:103C000010E0F50181919191A191B1915F01F701CE
:103C100081939193A193B1937F01812F0E944F32A1
:103C20001F5F133071F70E94653728C684918F019A
:103C30000F5F1F4F882321F00E94AF34F801F6CFA9
:103C400083E50E94DC33882321F00E949A3380931D
:103C50000402EDEBF4E084918F010F5F1F4F882386
:103C600021F00E94AF34F801F6CF80910402811157
:103C700003C0E9EBF4E002C0E5EBF4E084918F01CE
:103C80000F5F1F4F882321F00E94AF34F801F6CF59
:103C9000EDEAF4E084918F010F5F1F4F882321F03C
:103CA0000E94AF34F801F6CF40905802509059026C
:103CB00060905A0270905B0220916E0330916F0306
:103CC0004091700350917103C301B2010E94E267F9
:103CD000AB01BC018BEA94E00E948E2F80905C02C5
:103CE00090905D02A0905E02B0905F0220917203FE
:103CF000309173034091740350917503C501B40171
:103D00000E94E267AB01BC0188EA94E00E948E2F1A
:103D1000C0906002D0906102E0906202F090630275
:103D20002091760330917703409178035091790385
:103D3000C701B6010E94E267AB01BC0185EA94E0CD
:103D40000E948E2FEDE9F4E084918F010F5F1F4FE9
:103D5000882321F00E94AF34F801F6CF20911D0294
:103D600030911E0240911F0250912002C301B20106
:103D70000E94E267AB01BC018BE994E00E948E2FA8
:103D8000209121023091220240912302509124027D
:103D9000C501B4010E94E267AB01BC0188E994E06F
:103DA0000E948E2F209125023091260240912702F9
:103DB00050912802C701B6010E94E267AB01BC0125
:103DC00085E994E00E948E2F8AE00E94AF3456C5A8
:103DD00083E50E942334882309F450C50E94793377
:103DE000709306026093050249C58DED90E00E9434
:103DF000D136811143C583E50E9423348823D9F14C
:103E00000091930310E00E947933000F111FF80115
:103E1000E75DFD4F718360838091930390E08C0197
:103E2000000F111F000F111F98012D5C3D4F7901EC
:103E3000880F991FFC01E75DFD4F60817181072E9E
:103E4000000C880B990B0E94E7632AE037ED43E2F0
:103E50005CE30E944664F801E558FC4F2081318103
:103E6000428153810E944664D7016D937D938D9367
:103E70009C93139703C5EAEDF7E184918F010F5FDF
:103E80001F4F882321F00E94AF34F801F6CF85E45C
:103E90000E94AF3480919303805D0E94AF34E09123
:103EA0009303F0E0EE0FFF1FE75DFD4F608171812E
:103EB0008DEC94E00E94AA2F85E20E94AF348AE044
:103EC0000E94AF34DBC480E50E94DC33882309F410
:103ED000D5C40E9479336B017C0183E50E942334B1
:103EE000882321F00E9479338B0102C00FEF1FEF6E
:103EF000C8010196039708F0C1C4D7FCBFC49C2D2C
:103F0000E5EDF4E08DE28E0F2491921709F4E0C5FF
:103F100031968E13F9CFDFC585E40E9423348111D9
:103F200010C080E50E94DC33882391F00E94A93301
:103F3000609388037093890380938A0390938B0323
:103F400007C00E948933882361F3E0E9F8E16EC07D
:103F500089E40E94DC33882381F00E94A9332CEA93
:103F600035EC47E25EE30E944664609384037093FD
:103F70008503809386039093870384E40E94DC3357
:103F8000882381F00E94A9332CEA35EC47E25EE3F6
:103F90000E94BE6860938C0370938D0380938E03A0
:103FA00090938F03EAEDF7E184918F010F5F1F4F2C
:103FB000882321F00E94AF34F801F6CF40918803A6
:103FC0005091890360918A0370918B038AE095E098
:103FD0000E948E2F2CEA35EC47E25EE36091840369
:103FE0007091850380918603909187030E94BE683B
:103FF000AB01BC0186E095E00E948E2F2CEA35ECE7
:1040000047E25EE360918C0370918D0380918E0393
:1040100090918F030E944664AB01BC0182E095E061
:104020000E948E2F8AE00E94AF3428C484918F01B1
:104030000F5F1F4F882321F00E94AF34F801F6CFA5
:10404000EEE0F5E084918F010F5F1F4F882309F4A4
:1040500015C40E94AF34F801F5CF83E50E94DC332C
:10406000182F882371F00E94A9330E94266970934B
:1040700038026093370221E0672B09F020E020939B
:10408000260680E50E94DC33882359F02091370210
:1040900030913802232B11F00E949A338093260628
:1040A000EDC31111EBC3EAEDF7E184918F010F5FCE
:1040B0001F4F882321F00E94AF34F801F6CF809182
:1040C0002606811103C065E472E002C062E472E07A
:1040D00085E395E00E94C12F60913702709138020C
:1040E00084E295E00E94AA2FE0E2F5E084918F013E
:1040F0000F5F1F4F882309F4C1C30E94AF34F8013A
:10410000F5CF85E40E942334882321F00E9479337F
:104110007B0102C0E12CF12C83E40E94233488232C
:1041200031F00E947933A4966FAFA49704C025E0C4
:10413000A4962FAFA49785E50E942334882319F015
:104140000E949A3303C085E50E94DC33E0968FAF6E
:10415000E097F7FC07C0812C912CF6E1AF2EF3E439
:10416000BF2E06C0812C912CECE8AE2EE2E4BE2ED0
:1041700083E50E942334882321F00E94A9334B0158
:104180005C01E114F10411F4109293030E941445B0
:104190002B013C01EE2069F0E7EBF6E084918F0102
:1041A0000F5F1F4F882309F469C30E94AF34F801E1
:1041B000F5CFE1EEF6E084917F013FEFE31AF30AD9
:1041C000882321F00E94AF34F701F5CFC501B40177
:1041D0000E942669072E000C880B990B0E94E7634A
:1041E0006AA77EA78AAB9EABD301C201805E914BCA
:1041F000AF4FBF4FEC968CAF9DAFAEAFBFAFEC975C
:104200000E94DE468FE78093920381E0809307024D
:10421000AB964CAE5DAE6EAE7FAEAB97E4964CAE59
:104220005DAE6EAE7FAEE497A7961FAEA797E896F9
:104230001CAE1DAE1EAE1FAEE8972B961FAE2B9781
:1042400090E49EAFACE12396AFAF2397B6E42F96F0
:10425000BFAF2F9727961FAE279763961FAE639722
:1042600067961FAE67976B961FAE6B97A3961CAEB3
:104270001DAE1EAE1FAEA3976F961CAE1DAE1EAE3A
:104280001FAE6F97C12CD12C76012FE730E040E0B4
:1042900050E02EA33FA348A759A77FE7872E912C74
:1042A000A12CB12CAF961CAE1DAE1EAE1FAEAF97AB
:1042B00031E0A6963FAFA6971BAE1AAE10E0212CB8
:1042C000312C00E0A4964FADA497042E000C550BA2
:1042D000A5965FAF4EAFA59780910702882309F49A
:1042E000F1C00E9414456AA37BA38CA39DA3809177
:1042F0009103882309F4CAC00E94EE461091270654
:10430000209028063090290600912A06212F322D70
:10431000432D502F27966FAD279763967FAD6397F8
:1043200067968FAD67976B969FAD6B970E94E16321
:1043300087FF0CC027961FAF279763962FAE639712
:1043400067963FAE67976B960FAF6B97212F322D15
:10435000432D502F2B966FAD2B977EAD23968FADAF
:1043600023972F969FAD2F970E94086A181654F432
:104370002B961FAF2B972EAE23963FAE23972F96EB
:104380000FAF2F97A6965FADA6972AA53EA54AA97F
:10439000552309F45CC05EA9612F722D832D902FE7
:1043A0000E94086A18160CF071C08AA19BA1ACA1EA
:1043B000BDA184199509A609B709C258DF4F8883A2
:1043C0009983AA83BB83CE57D04088589341A109D3
:1043D000B109B7FD5BC0D501C4012EA13FA148A51D
:1043E00059A5821B930BA40BB50BB595A795979573
:1043F000879580939203C258DF4F88819981AA8163
:10440000BB81CE57D040AF968CAF9DAFAEAFBFAFA4
:10441000AF979AA527969FAF2797AEA56396AFAFA4
:104420006397BAA96796BFAF6797EEA96B96EFAF90
:104430006B972AA13BA14CA15DA1AB962CAF3DAFE0
:104440004EAF5FAFAB97A6961FAEA6971FC05EA9F3
:10445000612F722D832D902F0E94E16387FF16C07C
:104460008AA19BA1ACA1BDA1AB962CAD3DAD4EAD3B
:104470005FADAB97821B930BA40BB50BAC01BD01D9
:10448000485853416109710977FF4DC320E030E07E
:1044900040EA51E46AA57EA58AA99EA90E94E26726
:1044A0009B01AC01612F722D832D902F0E94086A11
:1044B00018167CF4E3E4F6E084918F010F5F1F4F40
:1044C000811103C00E94DE46D9C10E94AF34F801B9
:1044D000F3CF8AA19BA1ACA1BDA1E4962CAD3DADCB
:1044E0004EAD5FADE497821B930BA40BB50BB7FDEC
:1044F00090C00E9406468AE00E94AF348AA19BA128
:10450000ACA1BDA18053984FAF4FBF4FE4968CAF85
:104510009DAFAEAFBFAFE497A7969FADA7979111A0
:104520005DC0E8962CAD3DAD4EAD5FADE897612F17
:10453000722D832D902F0E94086A1816D4F520E062
:1045400030E040E050E4612F722D832D902F0E94C7
:10455000E267E8966CAF7DAF8EAF9FAFE8972AA178
:104560003BA14CA15DA1205E314B4F4F5F4FEC96BC
:104570002CAF3DAF4EAF5FAFEC9720E030E040ECAA
:1045800050E46AA57EA58AA99EA90E94E1679B01C5
:10459000AC0181E0A7968FAFA797612F722D832D75
:1045A000902F0E94086A1816A4F1A7961FAEA7972D
:1045B00030C08AA19BA1ACA1BDA1EC962CAD3DADB4
:1045C0004EAD5FADEC97821B930BA40BB50BB7FD03
:1045D00020C042E256E064E376E018C020E030E01C
:1045E00040EA51E46AA57EA58AA99EA90E94E167D6
:1045F0009B01AC01612F722D832D902F0E94E163EE
:1046000087FF07C04FEF55E062E176E080E00E944F
:1046100000478AA19BA1ACA1BDA1880F991FAA1F29
:10462000BB1FAB962CAD3DAD4EAD5FADAB97821BC6
:10463000930BA40BB50B84199509A609B70981380A
:104640009F44A241B10568F0E1EEF5E084918F014D
:104650000F5F1F4F882309F435CF0E94AF34F80154
:10466000F5CF4AAD5BADA5968EAD9FADA5978417EE
:1046700095070CF031CEE4E8F5E084918F010F5FEF
:104680001F4F882321F00E94AF34F801F6CFB70105
:10469000A60180E795E00E948E2F8AE00E94AF3449
:1046A0006F964CAD5DAD6EAD7FAD6F978CE595E0CF
:1046B0000E948E2F8AE00E94AF34A3964CAD5DAD70
:1046C0006EAD7FADA39788E495E00E948E2F8AE0BF
:1046D0000E94AF34E0969FADE097992309F4CEC0D5
:1046E000C0928803D0928903E0928A03F0928B03F0
:1046F0002CEA35EC47E25EE36F966CAD7DAD8EAD96
:104700009FAD6F970E944664609384037093850306
:1047100080938603909387032CEA35EC47E25EE3AF
:10472000A3966CAD7DAD8EAD9FADA3970E94BE6884
:1047300060938C0370938D0380938E0390938F030B
:104740009DC084918F010F5F1F4F882321F00E942D
:10475000AF34F801F6CFE5EFF6E084918F010F5FFB
:104760001F4F882309F48AC00E94AF34F801F5CFA7
:104770000E94F23883C0E0E9F8E184918F010F5F75
:104780001F4F882321F00E94AF34F801F6CFE4E0F8
:10479000F7E084918F010F5F1F4F882309F46EC0EB
:1047A0000E94AF34F801F5CF0E941C3F67C083E53B
:1047B0000E94DC33882321F00E949A3391E08927FC
:1047C0000E94F63B5BC081E080932B0283E50E9450
:1047D0002334882339F00E949A3381114FC00E94FC
:1047E000C2594CC083E50E94DC33F7CF0E94545677
:1047F00045C0F09028040E94F238FF2029F1EAED2C
:10480000F7E184918F010F5F1F4F882321F00E94F1
:10481000AF34F801F6CF84E50E94AF346F2D70E01D
:1048200080E090E04AE00E946B3680E20E94AF3464
:10483000E7E2F7E084918F010F5F1F4F8823F1F0CB
:104840000E94AF34F801F6CF10926402EAEDF7E16E
:1048500084918F010F5F1F4F882321F00E94AF3496
:10486000F801F6CF60E070E085E197E00E94AA2FA2
:104870008AE00E94AF3402C00E9454561092B40BDA
:104880000E94A559DFC20E942F3480910402882320
:1048900021F08EE593E00E94654080910E0B83FD30
:1048A000A5C0C0906A03D0906B03E0906C03F090B9
:1048B0006D03209100043091010440910204509155
:1048C0000304C701B6010E94E163882309F48EC086
:1048D00060912706709128068091290690912A06FA
:1048E00020912606211129C00E94266920913702B5
:1048F000309138026217730704F5C0920004D09219
:104900000104E0920204F0920304EAEDF7E18491DD
:104910008F010F5F1F4F882321F00E94AF34F801F1
:10492000F6CFE8EFF1E084918F010F5F1F4F8823EE
:1049300021F00E94AF34F801F6CF80906A03909086
:104940006B03A0906C03B0906D0320910004309134
:1049500001044091020450910304C501B4010E9476
:10496000E1676B017C0120E030E0A9010E94086A48
:1049700087FF04C0F7FAF094F7F8F094E09164022E
:1049800024E0E29FF0011124ED5CFD4F2081318194
:1049900042815381C701B6010E94466420E030E0A5
:1049A00048E453E40E94086A181604F58092000453
:1049B00090920104A0920204B0920304EAEDF7E1A0
:1049C00084918F010F5F1F4F882321F00E94AF3425
:1049D000F801F6CFE9EDF1E084918F010F5F1F4FF1
:1049E000882321F00E94AF34F801F6CF60910502D0
:1049F00070910602072E000C880B990B0E94E7634A
:104A00002091000230910102409102025091030274
:104A10000E9446642AE037ED43E25CE30E9446646C
:104A20006E8B7F8B888F998FE090640219821A8237
:104A30001B821C82AE014F5F5F4F6A018E010A5ECE
:104A40001F4F2AE633E046E653E062E673E08EE568
:104A500093E00E94114980E1EEE5F3E0A4EFB3E0BA
:104A600001900D928A95E1F709CF6FD20C94FD1752
:104A70000E94F23888E50E94DC33882331F05F9A87
:104A80008091E7038E7F8093E70389E50E94DC3302
:104A9000882331F08A9A8091E7038D7F8093E70322
:104AA0008AE50E94DC33882359F0809108018095C3
:104AB0008170809306018091E7038B7F8093E703E9
:104AC00085E40E94DC33882309F4D8CE129AD6CE2E
:104AD0000E94B934D3CE0E94F238BC2C60E08C2DF9
:104AE0000E94D9430F3FBFEF1B0759F48C2D0E9442
:104AF000E94831E020E0892B09F030E0032F122F44
:104B000005C00130110561F000E010E08B2D0E941E
:104B1000E9488017910709F4B1CE0E94BA56F6CF42
:104B200001E010E0F3CF4AAD5BAD452B09F460C165
:104B3000AF964CAC5DAC6EAC7FACAF97480E591ED7
:104B40006A1E7B1EAF962CAD3DAD4EAD5FADAF97EF
:104B5000281B390B4A0B5B0BCA01B9012EA13FA1DF
:104B600048A559A50E949767A30192010E94BA6ABD
:104B7000D501C401820F931FA41FB51F8431910575
:104B8000A105B105FCF04C015D018C3E9105A1052C
:104B9000B1052CF05BEE852E912CA12CB12C40E8B8
:104BA00084169104A104B104DCF08EEF90E0A0E043
:104BB000B0E088199909AA09BB098EA39FA3A8A7E9
:104BC000B9A712C044E1842E912CA12CB12C24E170
:104BD00030E040E050E02EA33FA348A759A704C00F
:104BE0008EA29FA2A8A6B9A6EFEAF6E084919F0143
:104BF0002F5F3F4F882381F0ED962FAFED97EE9614
:104C00003FAFEE970E94AF34ED962FADED97EE9645
:104C10003FADEE97F901EACFC501B4010E940C3710
:104C2000EAEAF6E084919F012F5F3F4F882381F0ED
:104C3000ED962FAFED97EE963FAFEE970E94AF3413
:104C4000ED962FADED97EE963FADEE97F901EACFD9
:104C50006EA17FA188A599A50E940C372B964FAD18
:104C60002B975EAD23966FAD23972F967FAD2F9731
:104C700083EA96E00E948E2F27964FAD2797639682
:104C80005FAD639767966FAD67976B967FAD6B97D8
:104C90008CE996E00E948E2F4AAD5BAD4330510502
:104CA0000CF4A6C06EA17FA188A599A50E94E76318
:104CB00020E030E040E850E40E9446646B017C0153
:104CC0002B962FAD2B973EAD23964FAD23972F9666
:104CD0005FAD2F9727966FAD279763967FAD63974C
:104CE00067968FAD67976B969FAD6B970E94E16754
:104CF0002BED3FE049E450E40E94466420E030E0C0
:104D000040E05FE30E9446649B01AC01C701B6012D
:104D10000E94BE686B017C01C301B2010E94E7637F
:104D20002FE632E143E85AE30E9446642B013C013E
:104D3000B701A60186E996E00E948E2FB301A20179
:104D400080E996E00E948E2F2AE939E949E15FE384
:104D5000C701B6010E9446646B017C019B01AC0156
:104D60000E94E267A30192010E94BE686F966CAF39
:104D70007DAF8EAF9FAF6F97A3019201C701B601C0
:104D80000E94466420E030E040E05EE30E9446641A
:104D9000A3966CAF7DAF8EAF9FAFA397E0E8F6E030
:104DA00084913F015FEF651A750A882321F00E9404
:104DB000AF34F301F5CFB701A6018AE796E00E9470
:104DC0008E2F6F964CAD5DAD6EAD7FAD6F9784E766
:104DD00096E00E948E2FA3964CAD5DAD6EAD7FAD7B
:104DE000A3978EE696E00E948E2F8AE00E94AF3451
:104DF0008EA19FA1A8A5B9A5880D991DAA1DBB1DAF
:104E0000B595A79597958795809392038AAD9BADAD
:104E100001969BAF8AAF9AA52B969FAF2B97AEA515
:104E2000AEAFBAA92396BFAF2397EEA92F96EFAFE7
:104E30002F974AA05BA06CA07DA0F1E0A696FFAFE3
:104E4000A69724CBCF57DF4F0FB6F894DEBF0FBE27
:104E5000CDBFDF91CF911F910F91FF90EF90DF9029
:104E6000CF90BF90AF909F908F907F906F905F900A
:104E70004F903F902F9008958091FD0A9091FC0AE9
:104E8000891B8F7019F480E090E0089590912B06B3
:104E9000992351F0833030F48FEF890F19F080930C
:104EA0002B06F1CF10922B06E091FC0A8DE4E89FCF
:104EB000F0011124E45DF94F808180FDE4CF809101
:104EC000FC0A8F5F8F7080930B069091FC0A809193
:104ED000B205981304C080910B068093B205CF01F0
:104EE00008950F931F938091E403813019F40E9479
:104EF000144508C06091DC037091DD038091DE03EE
:104F00009091DF030091E0031091E1032091E2030F
:104F10003091E303601B710B820B930B28EE33E09F
:104F200040E050E00E94A6678091D8039091D90399
:104F3000A091DA03B091DB03BC01CD01620F731FB6
:104F4000841F951F1F910F9108958091E403813074
:104F500099F1823051F4C5DF6093D8037093D9037F
:104F60008093DA039093DB0318C01092E003109251
:104F7000E1031092E2031092E3031092DC0310921B
:104F8000DD031092DE031092DF031092D80310921B
:104F9000D9031092DA031092DB0381E08093E403DB
:104FA0000E9414456093E0037093E1038093E20351
:104FB0009093E30381E0089580E008958091E403F5
:104FC0008150823010F080E008951092E4030E9436
:104FD00014456093DC037093DD038093DE039093AC
:104FE000DF0381E0089590916F0091FB222720F963
:104FF00091FF05C090916F009D7F90936F0034E00A
:10500000839FC0011124FC01E157FD4F4081518174
:1050100062817381FC01ED57FD4F408351836283B0
:10502000738381E080938202222329F080916F00B4
:10503000826080936F00089590916F0091FB22270A
:1050400020F991FF05C090916F009D7F90936F00B4
:1050500094E0899FF0011124E157FD4F6081718137
:1050600082819381222329F020916F002260209376
:105070006F000895BC012091E5023091E602409155
:10508000E5025091E6022417350711F09A01F7CF97
:1050900081E06217730709F080E008950F930FB75E
:1050A0000F9300916E000F930B7F00936E000091A1
:1050B0006F000D7F00936F000F930BB70F930CB72A
:1050C0000F921F922F933F934F935F936F937F9312
:1050D0008F939F93AF93BF93EF93FF93112456D079
:1050E000FF91EF91BF91AF919F918F917F916F91C0
:1050F0005F914F913F912F911F900F900CBF0F9197
:105100000BBF0F910260F89400936F000F91009312
:105110006E000F910FBF0F9118958091800280FF54
:1051200003C089988FEF02C0899A81E080931402AE
:105130008091800281FF03C08F9A8FEF02C08F9809
:1051400081E0809315028091800282FF07C08091E8
:105150000B018270809309018FEF07C080910B01D2
:10516000809582708093090181E08093160280917E
:10517000800283FF03C016988FEF02C0169A81E069
:105180008093170200000000000008953F924F92A4
:105190005F926F927F928F929F92AF92BF92CF92C7
:1051A000DF92EF92FF920F931F93CF93DF93F894C8
:1051B0008FEF9FEF9093890080938800EAE03E2E66
:1051C00000E010E078948091E1029091E202A091D9
:1051D000E302B091E402892B8A2B8B2B09F0D6C114
:1051E000809182028823D1F0109282028091E502A0
:1051F0009091E602892B91F0109281021092E602C2
:105200001092E5029091FD0A8091FC0A981731F006
:105210008091FC0A8F5F8F708093FC0A8091E50279
:105220009091E602892B09F4B1C14091DD025091C1
:10523000DE026091DF027091E0029091CC02C0909A
:10524000D902D090DA02E090DB02F090DC02C41ABE
:10525000D50AE60AF70A892F90E0A0E0B0E0C81668
:10526000D906EA06FB0610F4D701C601282F840FE1
:10527000951FA61FB71F8093DD029093DE02A093B7
:10528000DF02B093E00280918400909185004E96F9
:10529000C090B402D090B502E090B602F090B70290
:1052A0004091A4025091A5026091A6027091A702BC
:1052B0004C0D5D1D6E1D7F1D4093B4025093B502D1
:1052C0006093B6027093B70277FD1CC0889AC090B5
:1052D0008F02D0909002E0909102F0909202409163
:1052E0001402042E000C550B660B770B4C0D5D1D44
:1052F0006E1D7F1D40938F02509390026093910228
:1053000070939202C090B802D090B902E090BA02B5
:10531000F090BB024091A8025091A9026091AA02AC
:105320007091AB024C0D5D1D6E1D7F1D4093B80248
:105330005093B9026093BA027093BB0277FD1CC010
:105340008E9AC0909302D0909402E0909502F090D3
:10535000960240911502042E000C550B660B770B3C
:105360004C0D5D1D6E1D7F1D409393025093940262
:105370006093950270939602C090BC02D090BD02DB
:10538000E090BE02F090BF024091AC025091AD029D
:105390006091AE027091AF024C0D5D1D6E1D7F1DC0
:1053A0004093BC025093BD026093BE027093BF0253
:1053B00077FD21C030910B01309538703093090191
:1053C000C0909702D0909802E0909902F0909A02D3
:1053D00040911602042E000C550B660B770B4C0DFA
:1053E0005D1D6E1D7F1D4093970250939802609340
:1053F000990270939A02C090C002D090C102E090CE
:10540000C202F090C3024091B0025091B10260918B
:10541000B2027091B3024C0D5D1D6E1D7F1D409355
:10542000C0025093C1026093C2027093C30277FD21
:105430001CC0149AC0909B02D0909C02E0909D02E8
:10544000F0909E0240911702042E000C550B660B43
:10545000770B4C0D5D1D6E1D7F1D40939B0250937D
:105460009C0260939D0270939E0240918400509133
:10547000850048175907C8F34091B4025091B5020E
:105480006091B6027091B70277FD15C0C090A0027E
:10549000D090A102E090A202F090A3024C195D0905
:1054A0006E097F094093B4025093B5026093B6022F
:1054B0007093B70288984091B8025091B9026091F8
:1054C000BA027091BB0277FD15C0C090A002D090C7
:1054D000A102E090A202F090A3024C195D096E09AE
:1054E0007F094093B8025093B9026093BA02709357
:1054F000BB028E984091BC025091BD026091BE02E9
:105500007091BF0277FD19C0C090A002D090A10297
:10551000E090A202F090A3024C195D096E097F0988
:105520004093BC025093BD026093BE027093BF02D1
:1055300030910B013870309309014091C0025091B5
:10554000C1026091C2027091C30277FD15C0C09084
:10555000A002D090A102E090A202F090A3024C1908
:105560005D096E097F094093C0025093C1026093A8
:10557000C2027093C3021498215041F040918400FC
:105580005091850048175907C8F381CE8091E102F8
:105590009091E202A091E302B091E402892B8A2B60
:1055A0008B2B09F01DC3E091E502F091E6023097E4
:1055B00039F18091DD029091DE02A091DF02B0917D
:1055C000E0024091D9025091DA026091DB027091C1
:1055D000DC0284179507A607B707C8F0109281026E
:1055E0001092E6021092E5029091FD0A8091FC0A69
:1055F000981731F08091FC0A8F5F8F708093FC0ABE
:1056000070EDC72E77E0D72EE12CF12C4FC14091E1
:10561000D5025091D6026091D7027091D8024817F6
:1056200059076A077B0708F467C08091D1029091FF
:10563000D202A091D302B091D40242A953A964A985
:1056400075A9CC27859FD12D969F9001A69F300DDF
:10565000A59F200D311D869FD00D211D3C1F959FBC
:10566000D00D211D3C1FA49FD00D211D3C1F949FD8
:10567000D10D2C1F3C1FD6952C1F3C1F789F200D51
:10568000311D799F300D112443AD54AD65AD76AD1C
:10569000420F531F611D711D4093CD025093CE02E6
:1056A0006093CF027093D002C7A8D0ACE1ACF2AC4B
:1056B000C416D506E606F70640F4C092CD02D09295
:1056C000CE02E092CF02F092D002C090CD02D090F4
:1056D000CE02E090CF02F090D00229E33FE041E01B
:1056E000F90185909590A590B4908C149D04AE041A
:1056F000BF0408F4BCC2C7C24091C8025091C9029D
:105700006091CA027091CB02481759076A077B075C
:1057100008F063C08091C4029091C502A091C602B6
:10572000B091C70242A953A964A975A9CC27859F46
:10573000D12D969F9001A69F300DA59F200D311D64
:10574000869FD00D211D3C1F959FD00D211D3C1F14
:10575000A49FD00D211D3C1F949FD10D2C1F3C1FD9
:10576000D6952C1F3C1F789F200D311D799F300D41
:1057700011244901A12CB12CC090CD02D090CE02B1
:10578000E090CF02F090D002FF968C149D04AE04FE
:10579000BF0480F44081518162817381C818D908A7
:1057A000EA08FB08C416D506E606F70638F46A01CF
:1057B0007B0104C0C080D180E280F38029E33FE018
:1057C00041E0F90185909590A590B4908C149D04CA
:1057D000AE04BF0408F4C0C2CBC2809119029091FC
:1057E0001A02A0911B02B0911C02B7FF57C087A9F3
:1057F00090ADA1ADB2AD29E33FE041E0F901C59024
:10580000D590E590F490C816D906EA06FB0658F440
:10581000B695A79597958795440F2C5F3F4FFFE06E
:1058200025353F0759F74093CC0280329105A105F9
:10583000B10508F42BC38097A109B109811528E0AF
:105840009207A105B10508F4FCC244E0949FF00161
:1058500011249F01275C344FF901329645915491F0
:10586000EE27859FB001849F610D7E1F06946E1FF9
:105870007E1F1124AB0160E070E0F90185919491E5
:10588000A0E0B0E0841B950BA60BB70B8093190228
:1058900090931A02A0931B02B0931C02C0901902AD
:1058A000D0901A02E0901B02F0901C028091E50259
:1058B0009091E602892B09F08BC1DEDA9093E60223
:1058C0008093E502892B09F483C1C091E502D09150
:1058D000E602888183FF3EC08D899E89AF89B88D9D
:1058E00080938F0290939002A0939102B0939202C2
:1058F000898D9A8DAB8DBC8D809393029093940289
:10590000A0939502B09396028D8D9E8DAF8DB8A118
:105910008093970290939802A0939902B0939A0271
:1059200089A19AA1ABA1BCA180939B0290939C02F8
:10593000A0939D02B0939E029091FD0A8091FC0A73
:10594000981709F4BACF8091FC0A8F5F8F7080930B
:10595000FC0AB3CF8D889E88AF88B88C81E0811413
:105960009104A104B10409F480E0C98CDA8CEB8CB9
:10597000FC8CC114D104E104F10409F082604D8D66
:105980005E8D6F8D78A1411551056105710509F096
:105990008460809381021092C4021092C50210921A
:1059A000C6021092C7021092D1021092D202109237
:1059B000D3021092D4028DA19EA1AFA1B8A580936D
:1059C000D9029093DA02A093DB02B093DC02442464
:1059D00055243201481A590A6A0A7B0A4092C002C9
:1059E0005092C1026092C2027092C3024092BC0205
:1059F0005092BD026092BE027092BF024092B80205
:105A00005092B9026092BA027092BB024092B40204
:105A10005092B5026092B6027092B702880C991C3F
:105A2000AA1CBB1C8092A4029092A502A092A6027E
:105A3000B092A702CC0CDD1CEE1CFF1CC092A80289
:105A4000D092A902E092AA02F092AB02440F551F35
:105A5000661F771F4093AC025093AD026093AE0275
:105A60007093AF0249A15AA16BA17CA1440F551FAD
:105A7000661F771F4093B0025093B1026093B20249
:105A80007093B302880F991FAA1FBB1F8093A002B7
:105A90009093A102A093A202B093A3021092DD0200
:105AA0001092DE021092DF021092E0028AA59BA5FE
:105AB000ACA5BDA58093D5029093D602A093D70242
:105AC000B093D8028EA59FA5A8A9B9A98093C802B2
:105AD0009093C902A093CA02B093CB0289A5809388
