:100000000C94270E0C94520E0C94520E0C94520E1B
:100010000C94520E0C94520E0C94520E0C94520EE0
:100020000C94520E0C94520E0C94FDE20C9477E159
:100030000C94520E0C94520E0C94520E0C94520EC0
:100040000C94520E0C94B78D0C94520E0C94520ECC
:100050000C94520E0C94520E0C94A5960C9440E005
:100060000C94520E0C94520E0C94520E0C94520E90
:100070000C94520E0C94520E0C94520E0C94520E80
:100080000C94520E0C94520E0C94520E0C94520E70
:100090000C9497DA0C94520E084AD73B3BCE016E73
:1000A00084BCBFFDC12F3D6C74319ABD56833DDACF
:1000B0003D00C77F11BED9E4BB4C3E916BAAAABEDE
:1000C000000000803F05A84CCDB2D44EB93836A907
:1000D000020C50B9918688083CA6AAAA2ABE000044
:1000E00000803F4D383420582059205A2045006563
:1000F00063686F3A0043616E6E6F7420656E74655D
:1001000072207375626469723A20004D3234004D7A
:100110003233202573006175746F25692E670045A1
:1001200072726F723A006572726F722077726974C0
:10013000696E6720746F2066696C65004E6F74206D
:100140005344207072696E74696E67002F005344C7
:10015000207072696E74696E672062797465200020
:100160002E0044656C6574696F6E206661696C650C
:10017000642C2046696C653A200046696C652064F1
:10018000656C657465643A002E006F70656E20665C
:1001900061696C65642C2046696C653A2000577271
:1001A0006974696E6720746F2066696C653A200017
:1001B0002E006F70656E206661696C65642C204648
:1001C000696C653A20002E006F70656E206661696B
:1001D0006C65642C2046696C653A200046696C6544
:1001E0002073656C6563746564002053697A653AB1
:1001F000200046696C65206F70656E65643A20006A
:100200002E006F70656E206661696C65642C2046F7
:10021000696C653A20004E6F7720667265736820BE
:1002200066696C653A20004E6F7720646F696E676F
:100230002066696C653A20002220706F73002220CE
:10024000706172656E743A2200535542524F555494
:10025000494E452043414C4C207461726765743AA5
:100260002200747279696E6720746F2063616C6C10
:10027000207375622D67636F64652066696C6573B2
:10028000207769746820746F6F206D616E79206CBF
:100290006576656C732E204D4158206C6576656CD3
:1002A0002069733A0053442063617264206F6B00CD
:1002B0006F70656E526F6F74206661696C65640063
:1002C000766F6C756D652E696E6974206661696CF8
:1002D000656400534420696E6974206661696C002E
:1002E0006563686F3A0048617264636F6465642097
:1002F00044656661756C742053657474696E6773C8
:10030000204C6F616465640053746F726564207380
:10031000657474696E677320726574726965766559
:100320006400205A0020590020204D3231322058DC
:10033000004265642070726F6265206F6666736547
:100340007420286D6D293A00205A00205900202081
:100350004D3231312058004D617820706F736974CF
:10036000696F6E20286D6D293A00205A00205900CF
:1003700020204D3231302058004D696E20706F734F
:100380006974696F6E20286D6D293A002044002041
:1003900049002020204D3330312050005049442066
:1003A00073657474696E67733A00205A00205900AF
:1003B00020204D323036205800486F6D65206F6622
:1003C0006673657420286D6D293A00204500205A17
:1003D0000020580020420020540020204D323035AB
:1003E000205300416476616E6365642076617269B2
:1003F00061626C65733A20533D4D696E2066656598
:10040000647261746520286D6D2F73292C20543D12
:100410004D696E2074726176656C206665656472E4
:1004200061746520286D6D2F73292C20423D6D6904
:100430006E696D756D207365676D656E7420746986
:100440006D6520286D73292C20583D6D6178696D8C
:10045000756D205859206A65726B20286D6D2F7359
:10046000292C20205A3D6D6178696D756D205A20C8
:100470006A65726B20286D6D2F73292C2020453DF5
:100480006D6178696D756D2045206A65726B2028F5
:100490006D6D2F73290020540020204D3230342000
:1004A0005300416363656C65726174696F6E3A20D5
:1004B000533D616363656C65726174696F6E2C2076
:1004C000543D7265747261637420616363656C6529
:1004D000726174696F6E00204500205A0020590037
:1004E00020204D3230312058004D6178696D756D96
:1004F00020416363656C65726174696F6E20286D5D
:100500006D2F7332293A00204500205A00205900EF
:1005100020204D3230332058004D6178696D756D63
:100520002066656564726174657320286D6D2F7334
:10053000293A00204500205A0020590020204D393A
:100540003220580053746570732070657220756E88
:1005500069743A0053657474696E67732053746FDD
:10056000726564006563686F3A004572726F723A33
:100570000053544F505045442E20005072696E7401
:1005800065722073746F7070656420647565207483
:100590006F206572726F72732E20466978207468BE
:1005A00065206572726F7220616E642075736520BC
:1005B0004D39393920746F20726573746172742EED
:1005C000202854656D706572617475726520697359
:1005D0002072657365742E205365742069742061E0
:1005E000667465722072657374617274696E6729CE
:1005F000004B494C4C45442E20005072696E746586
:10060000722068616C7465642E206B696C6C28299B
:100610002063616C6C656421006F6B0052657365CB
:100620006E643A20002200556E6B6E6F776E206309
:100630006F6D6D616E643A2022004368616E67657C
:100640002066696C616D656E7400486F74656E64D8
:10065000206F6666736574733A007A5F6D696E3AEF
:100660002000795F6D61783A2000785F6D696E3A9D
:1006700020005A3A00593A0020436F756E74205892
:100680003A2000453A005A3A00593A00583A004692
:1006900049524D574152455F4E414D453A504220D7
:1006A0004D61726C696E2052657620462076352049
:1006B0004649524D574152455F55524C3A68747401
:1006C00070733A2F2F6769746875622E636F6D2F90
:1006D0005072696E7472626F742F4D61726C696EC4
:1006E0002050524F544F434F4C5F56455253494F41
:1006F0004E3A312E30204D414348494E455F5459C2
:1007000050453A5072696E7472626F742045585445
:1007100052554445525F434F554E543A3320555538
:1007200049443A30303030303030302D3030303095
:100730002D303030302D303030302D3030303030C2
:10074000303030303030300A005072696E7472626E
:100750006F74204F66662E0042656420646F6E657C
:100760002E0020423A0020453A00543A0042656487
:100770002048656174696E672E0048656174696E12
:100780006720646F6E652E0020573A0020453A00BE
:10079000543A0048656174696E672E2E2E0020421F
:1007A000403A0020403A00202F003A002054002018
:1007B0002F0020423A00202F006F6B20543A002572
:1007C00069206D696E2C2025692073656300456E74
:1007D000642066696C65206C6973740042656769A2
:1007E0006E2066696C65206C697374004E6F206DB5
:1007F0006F76652E00526573756D696E6720707235
:10080000696E74005761697420666F722075736534
:10081000722E2E2E000A00205A3A200020593A202B
:100820000042656420506F736974696F6E20583A96
:1008300020000A00207A3A200020793A2000426500
:100840006420783A20000A00207A3A200020793A81
:10085000200042656420783A20000A00207A3A207D
:100860000020793A200042656420783A20005A50EE
:10087000726F6265204F75747369646520426564A8
:10088000005A50726F6265204F75747369646520F9
:1008900042656400486F6D6520582F592062656677
:1008A0006F7265205A00486F6D6520582F5920627D
:1008B00065666F7265205A00536C6565702E2E2E2A
:1008C00000FF01FF0000A0400000A0400000803FAA
:1008D000256920686F757273202569206D696E75B2
:1008E00074657300446F6E65207072696E74696E12
:1008F000672066696C650053544F505045442E2064
:10090000005072696E7465722073746F70706564E4
:100910002064756520746F206572726F72732E206B
:1009200046697820746865206572726F7220616E06
:100930006420757365204D39393920746F207265D4
:1009400073746172742E202854656D7065726174C1
:100950007572652069732072657365742E20536506
:1009600074206974206166746572207265737461A5
:100970007274696E6729006F6B004E6F204C696E50
:1009800065204E756D6265722077697468206368B2
:1009900065636B73756D2C204C617374204C696EAC
:1009A000653A20004E6F20436865636B73756D2058
:1009B00077697468206C696E65206E756D6265720A
:1009C0002C204C617374204C696E653A200063687A
:1009D00065636B73756D206D69736D617463682CED
:1009E000204C617374204C696E653A20004C696E2E
:1009F00065204E756D626572206973206E6F74207C
:100A00004C617374204C696E65204E756D62657221
:100A10002B312C204C617374204C696E653A200098
:100A20004D31313000446F6E6520736176696E67B9
:100A30002066696C652E006F6B004D3239002020F6
:100A4000506C616E6E65724275666665724279744D
:100A500065733A20002046726565204D656D6F72A2
:100A6000793A200041756720203720323031350037
:100A7000436F6D70696C65643A2000286A2D6C6163
:100A80006972642C205072696E7472626F74206691
:100A900069726D776172652900207C2041757468E8
:100AA0006F723A200041756720203720323031358F
:100AB0002030313A30363A303700204C61737420A0
:100AC000557064617465643A2000312E302E300018
:100AD0004D61726C696E200020536F66747761728D
:100AE0006520526573657400205761746368646F94
:100AF00067205265736574002042726F776E206FB5
:100B00007574205265736574002045787465726E43
:100B1000616C20526573657400506F776572557013
:100B2000007374617274002200656E717565696E80
:100B3000672022002200656E717565696E6720224C
:100B4000006563686F3A0020746F6F206C6F6E678A
:100B500020657874727573696F6E20707265766542
:100B60006E7465640020636F6C64206578747275C0
:100B700073696F6E2070726576656E746564007C53
:100B80003C3E5E2B3D3F2F5B5D3B2C2A225C0045AB
:100B9000313A200045303A20005A3A2000593A2094
:100BA00000583A20004D53312C4D53322050696E7D
:100BB000730A006563686F3A0028002920453A00EF
:100BC000280029205A3A0028002920593A002800F4
:100BD00020583A00537465707065722063757272A4
:100BE000656E742076616C756573205B2528726173
:100BF00077295D3A0024F404D9201BC40C5C0E98BC
:100C000004C4095F0265077101F405F900FB04B330
:100C10000048048700C103690058035500030345D9
:100C200000BE023A008402310053022A0029022544
:100C30000004022000E4011C00C8011900AF0117E4
:100C4000009801140084011300710110006101106B
:100C50000051010E0043010D0036010B002B010B6A
:100C60000020010B00150109000C01090003010817
:100C700000FB000800F3000800EB000700E400069A
:100C800000DE000600D8000600D2000600CC0005F9
:100C900000C7000500C2000500BD000400B9000443
:100CA00000B5000400B1000400AD000400A9000478
:100CB00000A5000300A20003009F0004009B0003A6
:100CC00000980003009500020093000300900003C9
:100CD000008D0002008B00030088000200860002E5
:100CE0000084000300810002007F0002007D0002FA
:100CF000007B00020079000200770001007600020C
:100D0000007400020072000100710002006F000216
:100D1000006D0001006C0002006A00010069000221
:100D20000067000100660001006500010064000228
:100D3000006200010061000100600001005F00022C
:100D4000005D0001005C0001005B0001005A000131
:100D50000059000100580001005700010056000131
:100D60000055000100540001005300000053000131
:100D7000005200010051000100500001004F00012D
:100D8000004E0000004E0001004D0001004C00012B
:100D9000004B0000004B0001004A00010049000127
:100DA0000048000000480001004700010046000024
:100DB000004600010045000000450001004400011C
:100DC0000043000000430001004200000042000117
:100DD000004100000041000100400001003F000010
:100DE000003F0001003E0000003E0001003D000009
:100DF000003D0001003C0000003C0000003C000100
:100E0000003B0000003B0001003A0000003A0001F6
:100E100000390000003900010038000000380000EF
:100E200000380001003700000037000100360000E4
:100E300000360000003600010035000000350000DB
:100E400000350001003400000034000000340001CF
:100E500000330000003300000033000100320000C6
:100E600000320000003200010031000000310000BB
:100E700000310001003000000030000000300001AF
:100E8000002F0000002F0000002F0000002F0001A5
:100E9000002E0000002E0000002E0001002D00009A
:100EA000002D0000002D0000002D0001002C00008E
:100EB000002C0000002C0000002C0001002B000082
:100EC000002B0000002B0000002B0001002A000076
:100ED000002A0000002A0000002A0001002900006A
:100EE000002900000029000000290000002900015D
:100EF0000028000000280000002800000028000052
:100F00000028000100270000002700000027000043
:100F10000027000000270001002600000026000036
:100F20000026000000260000002600010025000029
:100F3000002500000025000000250000002500001D
:100F4000002500010024000000240000002400000F
:100F50000024000000240001002300000023000002
:100F600000230000002300000023000000230000F5
:100F700000230001002200000022000000220000E7
:100F800000220000002200000022000100210000D9
:100F900000210000002100000021000000210000CD
:100FA00000210000002100010020000000200000BE
:100FB00000200000002000000020000000200000B1
:100FC0000020000000200001001F0000001F0000A2
:100FD000001F0000001F0000001F0000001F000095
:100FE000001F0001001E0000001E0000001E000087
:100FF000001E00000024F4D43050C38E20C2A24052
:1010000017828B7011127A910D816CD90AA861E157
:1010100008C7586607615143061E4B5D05C145A7C9
:10102000041A411104093D9803713931034036DB3C
:101030000265339102D4305402802E1D02632CEEDF
:1010400001752AC501B028A001102781018F2564F0
:10105000012B244B01E0223401AC211F018D200D16
:1010600001801FFC00841EED00971DDF00B81CD21C
:1010700000E61BC600201BBC00641AB200B219A80F
:10108000000A19A0006A189900D117910040178B27
:1010900000B516840031167E00B31579003A157339
:1010A00000C7146F0058146A00EE136600881363BB
:1010B0000025135E00C7125B006C12570015125416
:1010C00000C111510070114F0021114B00D6104981
:1010D000008D1047004610440002104200C00F402F
:1010E00000800F3E00420F3C00060F3B00CB0E3845
:1010F00000930E37005C0E3500270E3400F30D32DE
:1011000000C10D3100900D3000600D2E00320D2D0C
:1011100000050D2C00D90C2B00AE0C2900850C29E4
:10112000005C0C2700350C27000E0C2600E80B2471
:1011300000C40B2400A00B23007D0B23005A0B21BD
:1011400000390B2100180B2000F80A1F00D90A1ED5
:1011500000BB0A1E009D0A1D00800A1D00630A1CB8
:1011600000470A1B002C0A1B00110A1A00F7091A73
:1011700000DD091900C4091900AB0919009209170B
:10118000007B091800630917004C09160036091680
:1011900000200916000A091500F5081500E00814DA
:1011A00000CC081400B8081400A408140090081318
:1011B000007D0812006B0813005808120046081240
:1011C0000034081100230811001208110001081151
:1011D00000F0071000E0071000D0071000C0071053
:1011E00000B0070F00A107100091070E0083070F42
:1011F0000074070F0065070E0057070E0049070E21
:10120000003B070D002E070E0020070D0013070DF1
:101210000006070D00F9060C00ED060D00E0060CB7
:1012200000D4060C00C8060C00BC060C00B0060C6E
:1012300000A4060B0099060C008D060B0082060B1D
:101240000077060B006C060B0061060A0057060BC0
:10125000004C060A0042060A0038060A002E060A5A
:101260000024060A001A060A001006090007060AEA
:1012700000FD050900F4050900EB050900E2050978
:1012800000D9050900D0050900C7050900BE0509F8
:1012900000B5050800AD050800A50509009C050876
:1012A00000940508008C050800840508007C0508EA
:1012B00000740508006C050700650508005D05075A
:1012C00000560508004E05070047050700400508C1
:1012D0000038050700310507002A05070023050728
:1012E000001C050600160507000F05070008050687
:1012F0000002050700FB040600F5040700EE0406E3
:1013000000E8040600E2040700DB040600D504063A
:1013100000CF040600C9040600C3040600BD04068D
:1013200000B7040600B1040500AC040600A60406DC
:1013300000A00405009B0406009504050090040627
:10134000008A04050085040500800406007A04056F
:101350000075040500700405006B040500660405B3
:1013600000610405005C04050057040500520405F3
:10137000004D04050048040500430405003E040434
:10138000003A04050035040500300404002C04056F
:101390000027040400230405001E0404001A0404AA
:1013A0000016040500110404000D040400090405DE
:1013B000000404040000040400FC030400F8030417
:1013C00000F4030400F0030400EC030400E8030449
:1013D00000E4030400E0030400DC030400D8030479
:1013E00000D4030400D0030400CC030400C80303AA
:1013F00000C5030300656E6473746F7073206869C1
:10140000743A205A00205A3A00656E6473746F7003
:1014100073206869743A20590020593A00656E6457
:1014200073746F7073206869743A20580020583ABA
:1014300000656E6473746F7073206869743A20007D
:101440004572726F723A004572723A204D4158549B
:10145000454D50204245440054656D70657261747D
:1014600075726520686561746564206265642073C7
:1014700077697463686564206F66662E204D4158F5
:1014800054454D5020747269676765726564202108
:1014900021004572723A204D494E54454D50003A54
:1014A0002045787472756465722073776974636817
:1014B0006564206F66662E204D494E54454D502080
:1014C0007472696767657265642021004572723ABB
:1014D000204D415854454D50003A2045787472755E
:1014E000646572207377697463686564206F6666EB
:1014F0002E204D415854454D5020747269676765E0
:10150000726564202100202D20496E76616C69642B
:10151000206578747275646572206E756D6265728F
:101520002021001000AD0330016A0150022B017030
:10153000030A019004F500B005E500D006D800F0DC
:1015400007CE001009C500300ABE00500BB700706E
:101550000CB100900DAB00B00EA600D00FA200F0B1
:10156000109D0010129900301395005014920070D5
:10157000158E0090168B00B0178700D0188400F0ED
:10158000198100101B7E00301C7B00501D790070FB
:101590001E7600901F7300B0207000D0216E00F006
:1015A000226B00102469003025660050266300700D
:1015B00027610090285E00B0295C00D02A5900F015
:1015C0002B5600102D5400302E5100502F4E00701D
:1015D000304B0090314800B0324500D0334200F02B
:1015E000343E0010363B003037370050383300703F
:1015F000392E00903A2900B03B2300D03C1B00F06C
:101600003D1100103F0100F03F00005049442041CF
:1016100075746F74756E652066696E69736865644C
:10162000212050757420746865204B702C204B6904
:1016300020616E64204B6420636F6E7374616E74FE
:101640007320696E746F20436F6E6669677572618F
:1016500074696F6E2E6800504944204175746F7430
:10166000756E65206661696C6564212074696D65BD
:101670006F75740020403A006F6B20543A006F6B16
:1016800020423A00504944204175746F74756E656C
:10169000206661696C6564212054656D70657261B6
:1016A0007475726520746F6F206869676800204BDD
:1016B000643A2000204B693A2000204B703A200009
:1016C00020436C61736963205049442000205475A5
:1016D0003A2000204B753A2000206D61783A2000B6
:1016E000206D696E3A200020643A20002062696112
:1016F000733A200070012C0190012701B0012201F2
:10170000C0011D01F00118011002130130020E0189
:101710006002090190020401C002FF000003FA0008
:101720004003F5008003F000D003EB002004E60046
:101730007004E100E004DC004005D700C005D200E1
:101740004006CD00D006C8008007C3003008BE00A8
:10175000F008B900C009B400B00AAF00B00BAA008D
:10176000D00CA500000EA000500F9B00C0109600EA
:101770005012910000148C00C0158700B017820031
:10178000B0197D00D01B7800001E730040206E0051
:1017900090226900F024640040275F0090295A00DD
:1017A000E02B5500102E500020304B001032460028
:1017B000E033410090353C0010373700703832007C
:1017C000A0392D00B03A2800A03B2300603C1E0049
:1017D000103D1900903D1400103E0F00703E0A00AD
:1017E000C03E0500003F00002D2D3A2D2D002D2D6F
:1017F0002D005344000120000120000120004D3243
:101800003100496E69742E2053442D436172640087
:101810004E6F2043617264004D3231004368616E47
:1018200067652053442D43617264005072696E7481
:101830002066726F6D2053440053746F7020507295
:10184000696E7400526573756D65205072696E74AF
:10185000005061757365205072696E7400436F6E3D
:1018600074726F6C00507265706172650054756EB1
:101870006500496E666F2073637265656E00052EA4
:101880002E000452656672657368004D61696E00D2
:101890004D3234004D3233202573004D38342058FA
:1018A0002059205A204500526573746F7265204696
:1018B00061696C73616665004C6F6164206D656D74
:1018C0006F72790053746F7265206D656D6F7279F8
:1018D0000054656D7065726174757265004D616963
:1018E0006E005049442D43005049442D4300504957
:1018F000442D44005049442D44005049442D490092
:101900005049442D49005049442D50005049442D20
:10191000500020022046616374002002204661636B
:1019200074002002204D6178002002204D61780073
:101930002002204D696E002002204D696E004F6626
:1019400066004F6E20004F6666004F6E20004175A6
:10195000746F74656D700046616E207370656564A8
:101960000046616E207370656564004265640042E4
:101970006564004E6F7A7A6C6533004E6F7A7A6CCC
:101980006533004E6F7A7A6C6532004E6F7A7A6CEE
:101990006532004E6F7A7A6C65004E6F7A7A6C65AC
:1019A00000436F6E74726F6C004D6F7665204178E6
:1019B000697300436F6F6C646F776E005072656877
:1019C00065617420414253005072656865617420FE
:1019D000504C4100473238004175746F20486F6D9C
:1019E00065004D38340044697361626C652053743E
:1019F000657070657273004D61696E004D6F76653C
:101A000020302E316D6D004D6F766520316D6D008B
:101A10004D6F76652031306D6D005072657061726A
:101A200065004578747275646572004D6F76652047
:101A30005A004D6F76652059004D6F76652058002D
:101A40004D6F7665204178697300457874727564CE
:101A50006572005A00590058004D36303000436816
:101A6000616E67652066696C616D656E7400466CB9
:101A70006F7700466C6F770046616E207370656506
:101A8000640046616E2073706565640042656400A1
:101A9000426564004E6F7A7A6C6533004E6F7A7AD5
:101AA0006C6533004E6F7A7A6C6532004E6F7A7ACD
:101AB0006C6532004E6F7A7A6C65004E6F7A7A6C84
:101AC00065005370656564005370656564004D6121
:101AD000696E0001290229042908291029202940BA
:101AE000298029012C022C01260226042608261012
:101AF00026202640268026402C802C012302230409
:101B000023082310232023402380230120022004C4
:101B10002008201020202040208020102C202C0184
:101B20002F022F042F082F102F202F402F802F7EC1
:101B3000FE7EFD7EFB7EF77EEF7EDF7EBF7E7F003A
:101B4000010000731B1200020000851B430003000C
:101B500000C81B0401030904CC1B1402030904E29E
:101B60001B1403030904F81B0C0001C10201803699
:101B700001813612010002020000207429030500D1
:101B8000010102030109024300020100C0320904FD
:101B900000000102020100052400100105240100DB
:101BA000010424020605240600010705820308003B
:101BB0004009040100020A0000000705030240007A
:101BC00000070584024000000403090414035000C8
:101BD000720069006E007400720062006F00740091
:101BE000000014035000720069006E00740072005F
:101BF00062006F00740000000C03310032003300FB
:101C0000340035000000494E46494E4954594E4172
:101C10004ECDCCCC3D0AD7233C17B7D13877CC2B4F
:101C2000329595E6241FB14F0A000020410000C8FC
:101C30004200401C4620BCBE4CCA1B0E5AAEC59D7D
:101C400074001D2D118C99CEA3D97EE6182D112478
:101C50001FBECFEFD0E2DEBFCDBF13E0A0E0B1E00A
:101C6000E4EEF8ED01E00BBF02C007900D92A83E34
:101C7000B107D9F71BBE12E1A8EEB3E001C01D9277
:101C8000A334B107E1F71CE1CCE4DCE104C0229706
:101C9000FE010E9418ECC234D107C9F70E947BE311
:101CA0000C9466EC0C940000A0E0B0E0EAE5FEE0E5
:101CB0000C9435ECEC015B016115710519F0FB0129
:101CC00091838083F9908F2D90E00E941CEC892BEA
:101CD000C9F7FDE2FF1621F4F990EE24E39405C064
:101CE0002BE2F21609F4F990EE248E010150104017
:101CF000C80166E07CE143E050E072D2892BF9F440
:101D00008E010E5F1F4FC80169E07CE145E050E0A5
:101D100067D2892B19F48E01095F1F4FA114B104FA
:101D200019F0F50111830083E0FC04C070E090E03D
:101D300080E813C070E090E080E86FEF07C1C80151
:101D40006EE07CE143E050E04BD2892B69F4A114B2
:101D5000B10429F470E090E080EC6FE7F7C02296C0
:101D6000F501D183C083F6CF8824992440E050E068
:101D700060E070E0EF2DE053EA30A0F5F2E0EF2AEA
:101D80008E2D90E09C0128703070E2FE06C0232B5F
:101D900079F50894811C911C2BC0232B19F0089411
:101DA00081089108DB01CA0112E0880F991FAA1F60
:101DB000BB1F1A95D1F7480F591F6A1F7B1F440F8D
:101DC000551F661F771F4E0F511D611D711D48392C
:101DD00029E9520729E9620729E1720748F084E0FE
:101DE000E82A06C0EE3F31F4E3FC39C098E0E92A66
:101DF000F990C0CFE53311F0E53189F529912D3205
:101E000019F4E0E1EE2A05C02B3219F081E090E0F0
:101E100003C0299182E090E0E22FE053EA3018F00D
:101E2000C81BD90B1CC020E030E0FCE020383F0785
:101E30005CF4C901880F991F880F991F280F391F5B
:101E4000220F331F2E0F311DE991E053EA3068F362
:101E5000E4FE03C0309521953F4F820E931ECE2C99
:101E6000DD24E1FE07C0A114B10421F02197F501A2
:101E7000D183C083CB01BA010E9481E87B018C0130
:101E8000F3E0CF22DD2423E0C216D10421F417FBB6
:101E9000109517F9109557016801C801B70120E0A6
:101EA00030E040E050E00E94E1E7882309F44AC0B6
:101EB00097FE0DC025E2E22E2CE1F22E9094819443
:101EC00091089394C0E2D0E000E010E012C09DE3DE
:101ED000E92E9CE1F92EF6CFF70125913591459138
:101EE0005491C601B5010E94C1EA5B016C018C1AD4
:101EF0009D0A8C169D0684F7D595C7950F5F1F4FD9
:101F00000630110529F08CEF9FEFE80EF91EF1CF96
:101F1000C501D6017C018D018C2D880F8D2D881F68
:101F20008F3F51F0C601B50120E030E040E050E0C5
:101F30000E94E1E7882331F482E290E0909342121C
:101F4000809341127E2D9F2D802F612F272F392FB7
:101F5000482F562FB901CA01CDB7DEB7ECE00C947B
:101F600051EC2F923F925F926F927F928F929F924D
:101F7000AF92BF92CF92DF92EF92FF920F931F9397
:101F8000CF93DF938C011B01EA016115710519F0F4
:101F9000FB0191838083209749F0CE0102978397BC
:101FA00028F020E030E040E050E0F6C0F801A190D9
:101FB0008F018A2D90E00E941CEC892BB9F7FDE27D
:101FC000AF1631F4F801A1908F015524539407C046
:101FD000FBE2AF1619F4F801A1908F015524209768
:101FE00019F0C031D105C1F4F0E3AF1679F4F8016E
:101FF0008081883711F0883549F4F801A1800E5F9F
:102000001F4FF2E05F2AC0E1D0E006C0209721F424
:1020100080E3A816E9F427C0C830D10531F1C930F2
:10202000D10524F4C230D10531F50CC0CA30D10538
:1020300089F0C031D105F9F4C12CD12CE12CB8E0E4
:10204000FB2E28C0C12CD12CE12CA0E4FA2E22C0FA
:10205000CAE0D0E0FCECCF2EFCECDF2EFCECEF2E47
:10206000FCE0FF2E17C0C8E0D0E0C12CD12CE12C41
:10207000E0E1FE2E0FC09E01442737FD4095542F0E
:1020800060E070E080E090E80E94D9EBC901DA01DD
:102090006C017D0120E030E040E050E060E03E0176
:1020A000882477FC8094982C70EDB72EBA0CE9E068
:1020B000EB1570F48A2D81548A3118F499ECB92EFD
:1020C00006C08A2D81568A3150F589EAB82EBA0C9D
:1020D0008B2D90E08C179D0714F56F3FE1F0C21631
:1020E000D306E406F506B0F0CA01B901A4019301D4
:1020F0000E9493EB9B01AC012B0D311D411D511D25
:102100002130F0E03F07F0E04F07F0E85F0710F400
:1021100061E001C06FEFF801A1908F01C5CF2114DC
:10212000310481F0662331F001501040F101118338
:10213000008308C051FE1AC002501040F101118303
:10214000008314C067FF12C050FC05C02FEF3FEFA3
:102150004FEF5FE704C020E030E040E050E882E26B
:1021600090E0909342128093411216C050FE08C036
:1021700050954095309521953F4F4F4F5F4F0CC084
:1021800057FF0AC082E290E090934212809341127E
:102190002FEF3FEF4FEF5FE7B901CA01DF91CF911A
:1021A0001F910F91FF90EF90DF90CF90BF90AF9075
:1021B0009F908F907F906F905F903F902F900895A9
:1021C000FB01DC0105900D920020E1F70895FC0170
:1021D00005900020E9F7809590958E0F9F1F089538
:1021E000FB01DC014150504088F08D9181341CF09E
:1021F0008B350CF4805E659161341CF06B350CF40A
:10220000605E861B611171F3990B0895881BFCCFEA
:10221000FB01DC014150504048F005900D92002038
:10222000C9F701C01D9241505040E0F70895FB01ED
:1022300055915523A9F0BF01DC014D91451741117E
:10224000E1F759F4CD010590002049F04D9140157A
:102250004111C9F3FB014111EFCF81E090E00197FB
:102260000895FB01DC0104C08D910190801921F4D7
:1022700041505040C8F7881B990B0895FB01DC01C1
:1022800002C001900D9241505040D8F70895FB01D3
:10229000DC010D900020E9F7119701900D920020CC
:1022A000E1F70895FC018191861721F08823D9F781
:1022B000992708953197CF010895FB01DC01019022
:1022C0000D920020E1F70895FB01DC0141505040E0
:1022D00030F08D910190801919F40020B9F7881B16
:1022E000990B0895FB01DC014150504048F00190EA
:1022F0000D920020C9F701C01D9241505040E0F7F7
:102300000895AEE0B0E0E7E8F1E10C943DEC0D8912
:102310001E898EE08C831A8309838FEF9FE79E834B
:102320008D839E01275E3F4FCE0101966F89788D88
:10233000A9010AD02F813885020F131FF8011082DE
:102340002E96E4E00C9459ECABE0B0E0EAEAF1E15F
:102350000C942FEC3C012B015A01FC0117821682D0
:10236000838181FD03C06FEF7FEFB9C19AE0892EB1
:102370001E010894211C311CF3012381F20123FD6D
:10238000859123FF81912F01882309F4A5C185320E
:1023900039F423FD859123FF81912F01853221F4AA
:1023A00090E0B301B7D1E8CF982FFF24EE24992411
:1023B000FFE1FF15D0F09B3269F09C3228F4903297
:1023C00059F0933291F40EC09D3249F0903369F484
:1023D00041E024C052E0F52A84E0F82A28C098E0C1
:1023E000F92A25C0E0E1FE2A22C0F7FC29C0892F86
:1023F00080538A3070F4F6FE05C0989C902C11240E
:10240000980E15C0E89CE02C1124E80EF0E2FF2A9B
:102410000EC09E3229F4F6FC5FC140E4F42A07C0E6
:102420009C3619F450E8F52A02C0983649F4F201B6
:1024300023FD959123FF91912F01992309F0B8CFA6
:10244000892F8554833018F08052833038F444E06B
:1024500050E0A40EB51E5FE359830FC0933631F0F0
:10246000933779F0933509F052C01FC0F501808190
:10247000898342E050E0A40EB51E610101E010E046
:1024800011C0F501C080D180F6FC03C06FEF7FEF73
:1024900002C0692D70E042E050E0A40EB51EC601F6
:1024A0002ED18C015FE7F52213C0F501C080D180E9
:1024B000F6FC03C06FEF7FEF02C0692D70E042E0D1
:1024C00050E0A40EB51EC6010FD18C0150E8F52ACC
:1024D000F3FE06C018C080E290E0B3011BD1EA947D
:1024E0008E2D90E008171907B0F30DC0F601F7FC28
:1024F0008591F7FE81916F0190E0B3010BD1E1105E
:10250000EA94015010400115110581F7E2C094369C
:1025100011F0993661F5F7FE08C0F501208131818F
:102520004281538184E090E00AC0F501808191816D
:102530009C01442737FD4095542F82E090E0A80E7F
:10254000B91E9FE6F92257FF09C050954095309576
:1025500021953F4F4F4F5F4FE0E8FE2ACA01B90176
:10256000A1012AE030E002D1D82ED2183FC0953721
:1025700029F41F2D1F7E2AE030E01DC01F2D197F7A
:102580009F3661F0903720F4983509F0A5C00FC050
:10259000903739F0983709F09FC004C028E030E048
:1025A0000AC0106114FD146020E130E004C014FD85
:1025B000166020E132E017FF08C0F50160817181EB
:1025C0008281938144E050E008C0F50180819181CF
:1025D000BC0180E090E042E050E0A40EB51EA101F5
:1025E000C5D0D82ED2188FE7F82EF122F6FE0BC0F8
:1025F0005EEFF522D91438F4F4FE07C0F2FC05C0F2
:102600008FEEF82202C01D2D01C0192DF4FE0DC061
:10261000FE01ED0DF11D8081803319F499EEF92250
:1026200008C01F5FF2FE05C003C08F2D867809F039
:102630001F5F0F2DF3FC13C0F0FE0EC01E1510F02F
:102640009D2C0AC09D2C9E0C911A1E2D05C080E267
:1026500090E0B3015FD01F5F1E15C8F304C01E15C4
:1026600010F4E11A01C0EE2404FF0EC080E390E0F4
:10267000B30150D002FF1BC001FD03C088E790E00A
:102680000EC088E590E00BC0802F867881F001FFB6
:1026900002C08BE201C080E2F7FC8DE290E0B30162
:1026A00039D005C080E390E0B30134D09A94D914B6
:1026B000C8F3DA94F101ED0DF11D808190E0B301D2
:1026C00029D0DD20B1F705C080E290E0B30122D02F
:1026D000EA94EE20C9F750CEF30166817781CB01F1
:1026E0002B96E2E10C944BECFC010590615070409C
:1026F0000110D8F7809590958E0F9F1F0895FC01CB
:102700006150704001900110D8F7809590958E0F20
:102710009F1F08950F931F93CF93DF938C01EB01BD
:102720008B8181FF1BC082FF0DC02E813F818C8178
:102730009D812817390764F4E881F9810193F983B1
:10274000E88306C0E885F985802F0995892B31F447
:102750008E819F8101969F838E8302C00FEF1FEFB2
:10276000C801DF91CF911F910F910895FA01AA2717
:10277000283051F1203181F1E8946F936E7F6E5FC4
:102780007F4F8F4F9F4FAF4FB1E03ED0B4E03CD072
:10279000670F781F891F9A1FA11D680F791F8A1F55
:1027A000911DA11D6A0F711D811D911DA11D20D0BC
:1027B00009F468943F912AE0269F11243019305D76
:1027C0003193DEF6CF010895462F4770405D419367
:1027D000B3E00FD0C9F7F6CF462F4F70405D4A33B4
:1027E00018F0495D31FD4052419302D0A9F7EACF7C
:1027F000B4E0A6959795879577956795BA95C9F7AB
:1028000000976105710508959B01AC010A2E06949D
:102810005795479537952795BA95C9F7620F731F56
:10282000841F951FA01D0895DC01ED91FC9102808D
:10283000F381E02D09950895DF93CF930F92CDB7E3
:10284000DEB7FC016983A081B18114962D913C9182
:102850001597BE016F5F7F4F41E050E0F901099588
:102860000F90CF91DF910895FC0112821382089599
:10287000FC018381882311F081E082830895FC01AB
:102880008281811112820895CF93DF93FC01E35777
:10289000FE4F208131812115310549F12150304011
:1028A00031832083DC01A05BBF4FFC01E359FF4F64
:1028B0002BE101900D922150E1F79C0126573F4FEB
:1028C00040E050E0EC01C357DE4F0CC04F5F5F4F5C
:1028D000D9015D97F9018BE101900D928150E1F7EB
:1028E000235E3F4F888199814817590778F3DF911C
:1028F000CF910895FC0181E793E0918380838581E6
:10290000882321F0CF0102960C945B7E0895CF922C
:10291000DF92EF92FF920F931F93DF93CF93CDB788
:10292000DEB76D970FB6F894DEBF0FBECDBF8C013A
:102930006B010D5A1F4FF801808103551040882309
:1029400021F49FE2E92EF12C03C08EE4E82EF12C55
:10295000E00EF11E81E793E09A8389831E821B8239
:10296000B7016E5F7F4FCE010396A60121E00E9462
:102970004885882329F5EFEEF0E064918F0107C0C8
:1029800088E392E159DF0F5F1F4FF80164916623DE
:10299000B9F7E5EFF0E064918F0107C088E392E1B9
:1029A0004BDF0F5F1F4FF80164916623B9F788E38F
:1029B00092E1B60139DF88E392E16AE03DDF3FC092
:1029C000F801E357FE4F608171816A30710568F547
:1029D0009B012F5F3F4F318320838DE190E0289F43
:1029E000A001299F500D389F500D112443595F4F6E
:1029F000400F511F0AC0DA01FA017D978BE1019067
:102A00000D928150E1F74D51504061507040FFEF01
:102A10006E3F7F0781F7D801A359BF4FF701329668
:102A20008BE101900D928150E1F7D801A05BBF4F7F
:102A3000FE0133968BE101900D928150E1F7CE01BA
:102A4000019658DF6D960FB6F894DEBF0FBECDBF6E
:102A5000CF91DF911F910F91FF90EF90DF90CF907A
:102A60000895EF92FF920F931F938C0124EBE22EB7
:102A700021E0F22EE80EF91EC7010E940C7EC7016C
:102A80000E945B7EF801108211821F910F91FF90CE
:102A9000EF900895CF92DF92EF92FF920F931F93E2
:102AA000CF93DF937C016B01DB010D900020E9F7F0
:102AB0008D0101501040061B170BE4EBF1E0EE0E08
:102AC000FF1ED7011C92ECE4FEEFEE0EFF1ECB01C1
:102AD0006EE470E0E7DBEC01009731F4F801319728
:102AE000EC0DFD1D86010CC060E270E0DBDB8C01AB
:102AF0000F5F1F4FCE016AE270E0D4DBFC0131971B
:102B00008DE081838AE082831382C7018E549E4FB9
:102B1000B8010E94418684EB91E0E80EF91ED701CE
:102B20008C918823F1F0EFE1F1E06491EF0106C0B0
:102B300088E392E181DE2196FE0164916623C1F76C
:102B4000E6E2F1E06491EF0106C088E392E174DE11
:102B50002196FE0164916623C1F788E392E16AE061
:102B60006BDEDF91CF911F910F91FF90EF90DF907F
:102B7000CF900895EF92FF920F93CF93DF937C0154
:102B8000FC018381882309F43DC0EEE4F1E0649107
:102B9000EF0106C088E392E14FDE2196FE016491C9
:102BA0006623C1F789E692E0E80EF91EF70140813D
:102BB00051816281738187E99DEFE80EF91E88E3F8
:102BC00092E12AE000E00E94BCE3ECE4F1E06491D1
:102BD000EF0106C088E392E12FDE2196FE016491A9
:102BE0006623C1F781E692E0E80EF91EF701408105
:102BF00051816281738188E392E12AE000E00E94C2
:102C0000BCE30DC0ECE3F1E06491EF0106C088E3A2
:102C100092E112DE2196FE0164916623C1F788E3FA
:102C200092E16AE009DEDF91CF910F91FF90EF9082
:102C300008952F923F924F925F926F927F928F9260
:102C40009F92AF92BF92CF92DF92EF92FF920F933B
:102C50001F93DF93CF93CDB7DEB7AA970FB6F89443
:102C6000DEBF0FBECDBF5C014B01FC018381882319
:102C700009F40AC1C5018C549E4F0E945B7EF50188
:102C80001282188A1B8A81E793E09F878E874CE423
:102C9000C42ED12CCA0CDB1C2FE230E0A20EB31ED6
:102CA000F601B182A08221ED3FEFA20EB31EF40126
:102CB00080818F3209F079C0C4016FE270E0F2DAEE
:102CC0007C010894E11CF11C3E010894611C711CFC
:102CD000260130E1232E312C2C0E3D1E61C0C70190
:102CE0006FE270E0DFDA6C01009709F46CC0E8165F
:102CF000F90608F068C08C010E191F09C301B7015D
:102D0000A801F0DA060D171DF801108288E392E1A0
:102D1000B3018ADD88E392E16AE08EDDF201608131
:102D200071816115710519F460E070E002C06E5F99
:102D30007F4FC101A30121E00E944885882329F526
:102D4000EAE8F1E064917F0108C088E392E174DD74
:102D50000894E11CF11CF70164916623B1F788E344
:102D600092E1BE016F5F7F4F5FDDE8E8F1E06491C3
:102D70007F0108C088E392E15FDD0894E11CF11C4B
:102D8000F70164916623B1F778C02EE030E02C0F94
:102D90003D1FF2013183208376010894E11CF11C70
:102DA000E114F10409F09BCF0BC08EE490E0A80E73
:102DB000B91EF601B182A08222EB3FEFA20EB31E34
:102DC000D82C092D02C0DE2C0F2D8CE490E0A80E2B
:102DD000B91EF5018081918124EB3FEFA20EB31E55
:102DE000009719F480E090E001C002966D2D702FDD
:102DF0000E9414868823F1F0EAE7F1E064917F01F4
:102E000008C088E392E118DD0894E11CF11CF70189
:102E100064916623B1F788E392E16D2D702F04DD94
:102E200029E632E0A20EB31EF50110821182128251
:102E3000138227C0E2E6F1E064917F0108C088E3D5
:102E400092E1FADC0894E11CF11CF701649166231D
:102E5000B1F788E392E16D2D702FE6DCE0E6F1E05A
:102E600064917F0108C088E392E1E6DC0894E11CEC
:102E7000F11CF70164916623B1F788E392E16AE0FF
:102E8000DBDCCE010E9636DDAA960FB6F894DEBFD7
:102E90000FBECDBFCF91DF911F910F91FF90EF90AB
:102EA000DF90CF90BF90AF909F908F907F906F906A
:102EB0005F904F903F902F900895BF92CF92DF92F6
:102EC000EF92FF920F931F93CF93DF938C01EB014F
:102ED0008FE28993EE24E394FF246DE8C62E61E02F
:102EE000D62EC00ED11E5DE1B52E14C0FB9CC001D4
:102EF000112483599F4F800F911FBE010E946B7E4A
:102F000002C02196E3948881882319F08CE88E15FD
:102F1000C0F7F3942F2D30E0F601808191812817BE
:102F2000390720F3E7FC07C0C8018C549E4FBE014F
:102F30000E946B7E01C01882DF91CF911F910F918B
:102F4000FF90EF90DF90CF90BF9008952F923F9227
:102F50004F925F926F927F928F929F92AF92BF92A9
:102F6000CF92DF92EF92FF920F931F93DF93CF9355
:102F7000CDB7DEB7AB970FB6F894DEBF0FBECDBFAF
:102F80005C014B014BA7DC0113968C91882309F45B
:102F9000DBC2E7EBF1E0AE0EBF1ED5018C91E9E498
:102FA000FEEFAE0EBF1E882309F4F5C0222309F000
:102FB000C6C02FEC31E0A20EB31ED5018C91E1E327
:102FC000FEEFAE0EBF1E882369F1EFE1F1E06491E0
:102FD0007F0108C088E392E12FDC0894E11CF11C1A
:102FE000F70164916623B1F7E2E6F2E064917F01B4
:102FF00008C088E392E120DC0894E11CF11CF70191
:1030000064916623B1F788E392E141E050E060E02B
:1030100070E00E9447E488E392E16AE00DDC0E94E0
:10302000662D92C2EFEEF0E064917F0108C088E364
:1030300092E102DC0894E11CF11CF7016491662323
:10304000B1F7E9E4F2E064917F0108C088E392E11E
:10305000F3DB0894E11CF11CF70164916623B1F7DE
:1030600088E392E1B401E0DBEEE3F2E064917F01FA
:1030700008C088E392E1E0DB0894E11CF11CF70151
:1030800064916623B1F7850101531E4FD8016C91FD
:103090008DE8F82E6F9DB00111246C527E4F6A0DA1
:1030A0007B1DC5010ADFF80160816F9DB00111240D
:1030B0006C527E4F6A0D7B1D88E392E1B5DBE8E33D
:1030C000F2E064917F0108C088E392E1B5DB0894E7
:1030D000E11CF11CF70164916623B1F7B9E6EB2E10
:1030E000B2E0FB2EEA0CFB1CD7014D915D916D9176
:1030F0007C9188E392E12AE000E00E94BCE388E34F
:1031000092E16AE099DBA50141535E4FFA0120810B
:10311000E22FF0E0EC58FF4FEE0FFF1FEE0FFF1F06
:10312000EA0DFB1DD701CD90DD90ED90FC90C082A3
:10313000D182E282F3822F5FFA01208326C0EFEE74
:10314000F0E064917F0108C088E392E175DB0894A8
:10315000E11CF11CF70164916623B1F7E7E2F2E0AC
:1031600064917F0108C088E392E166DB0894E11C6A
:10317000F11CF70164916623B1F788E392E1B40191
:1031800053DB88E392E16AE057DBC5018C549E4F24
:103190000E945B7E30C02FEC31E0A20EB31ED50141
:1031A0001C92E1E3FEEFAE0EBF1EEFEEF0E0649185
:1031B0007F0108C088E392E13FDB0894E11CF11C29
:1031C000F70164916623B1F7E6E1F2E064917F01D3
:1031D00008C088E392E130DB0894E11CF11CF701A0
:1031E00064916623B1F788E392E1B4011DDB88E3C3
:1031F00092E16AE021DBD50112961C92188A1B8AA3
:1032000081E793E09F878E87ECE4CE2ED12CCA0C09
:10321000DB1CEFE2F0E0AE0EBF1ED601AD92BC9219
:10322000E1EDFFEFAE0EBF1ED4018C918F3209F09D
:1032300079C0C4016FE270E035D87C010894E11CCC
:10324000F11C3E010894611C711C260170E1272EBF
:10325000312C2C0E3D1E61C0C7016FE270E022D8F8
:103260006C01009709F46CC0E816F90608F068C014
:103270008C010E191F09C301B701A80133D8060D2F
:10328000171DF801108288E392E1B301CDDA88E3DB
:1032900092E16AE0D1DAD2016D917C9161157105FC
:1032A00019F460E070E002C06E5F7F4FC101A301BE
:1032B00021E00E944885882329F5E2E0F2E064914C
:1032C0007F0108C088E392E1B7DA0894E11CF11CA1
:1032D000F70164916623B1F788E392E1BE016F5F65
:1032E0007F4FA2DAE0E0F2E064917F0108C088E35A
:1032F00092E1A2DA0894E11CF11CF70164916623C3
:10330000B1F7FCC0EEE0F0E0EC0FFD1FD201ED9351
:10331000FC9376010894E11CF11CE114F10409F01E
:103320009BCF0BC02EE430E0A20EB31ED601AD92AF
:10333000BC92E2EBFFEFAE0EBF1ED82CC92C02C030
:10334000DE2CCF2CF501E45BFF4F2BA5222309F4E3
:103350009EC0608171816115710519F460E070E0B3
:1033600002C06E5F7F4FC5018C549E4F4D2D5C2D6A
:1033700021E00E944885882309F465C0A5014F59C2
:103380005D4F85EC91E0A80EB91EF5018081918119
:10339000A281B3812BE33EEFA20EB31EFA0180831C
:1033A0009183A283B383E2EFF1E064917F0108C0CF
:1033B00088E392E141DA0894E11CF11CF701649181
:1033C0006623B1F788E392E16D2D7C2D2DDAEAEECC
:1033D000F1E064917F0108C088E392E12DDA08945E
:1033E000E11CF11CF70164916623B1F721E632E09C
:1033F000A20EB31ED5014D915D916D917C9188E334
:1034000092E12AE000E00E94BCE388E392E16AE0F6
:1034100013DAE8E0F0E0AE0EBF1ED5011D921D925A
:103420001D921C921397ECEDF1E064917F0108C0AE
:1034300088E392E101DA0894E11CF11CF701649140
:103440006623B1F776C0E8ECF1E064917F0108C033
:1034500088E392E1F1D90894E11CF11CF701649131
:103460006623B1F788E392E16D2D7C2DDDD9E6EC82
:10347000F1E064917F0108C088E392E1DDD908940E
:10348000E11CF11CF70164916623B1F737C060813C
:1034900071816115710519F460E070E002C06E5F22
:1034A0007F4FC5018C549E4F4D2D5C2D26E50E940B
:1034B0004885882341F5E2EBF1E064917F0108C083
:1034C00088E392E1B9D90894E11CF11CF7016491F9
:1034D0006623B1F788E392E16D2D7C2DA5D9E0EB51
:1034E000F1E064917F0108C088E392E1A5D90894D6
:1034F000E11CF11CF70164916623B1F788E392E1C6
:103500006AE09AD91EC081E0D5018C93EEE9F1E022
:1035100064917F0108C088E392E18ED90894E11C90
:10352000F11CF70164916623B1F788E392E1B401DD
:103530007BD988E392E16AE07FD98D2D9C2D0E9492
:10354000F6CECE010E96D6D9AB960FB6F894DEBF66
:103550000FBECDBFCF91DF911F910F91FF90EF90E4
:10356000DF90CF90BF90AF909F908F907F906F90A3
:103570005F904F903F902F900895EF92FF920F939E
:103580001F93CF93DF93EC010E949B8D8E0101531B
:103590001E4FD8018C9134EBE32E31E0F32EEC0E6C
:1035A000FD1E882399F1C7010E945B7EF8016081AE
:1035B000615060838DE8689FB00111246C527E4F8A
:1035C0006C0F7D1FCE0141E021E0C0DCD801EC9101
:1035D000F0E0EC58FF4FEE0FFF1FEE0FFF1FEC0F58
:1035E000FD1F4081518162817381C759DD4F48833E
:1035F00059836A837B83C956D240C7010E94427DAA
:103600008B81882389F181E08A832EC00E94EE8B12
:10361000C7010E945B7E1A8283EE90E00E94C45F25
:103620008091F908882301F11092F9088091A5068C
:10363000C82FD0E0CC0FDD1FC259DF4E68817981E1
:10364000882777FD8095982F0E9483E82091A1021A
:103650003091A2024091A3025091A4020E94EFE98E
:10366000181614F419821882DF91CF911F910F91CF
:10367000FF90EF900895FC0181E08183CF0140E04D
:1036800021E064CCEF92FF920F931F93CF93DF93CF
:103690007C01FC01138284A9882321F0C701C19613
:1036A0000E945B7E870101571E4FC80160E044E124
:1036B0000E94037C8823D9F4EFEEF0E06491EF01DF
:1036C00006C088E392E1B8D82196FE016491662392
:1036D000C1F7E3EDF2E06491EF0106C088E392E107
:1036E000ABD82196FE0164916623C1F76BC0E70158
:1036F000CC56DE4FCE01B80141E00E94D28688232D
:1037000011F5CE01B80140E00E94D2868823D9F499
:10371000EFE1F1E06491EF0106C088E392E18CD81B
:103720002196FE0164916623C1F7E0ECF2E064911A
:10373000EF0106C088E392E17FD82196FE016491F3
:103740006623C1F73FC0C701C196BE010E944D81EB
:103750008823D9F4EFE1F1E06491EF0106C088E33A
:1037600092E16AD82196FE0164916623C1F7E0EBED
:10377000F2E06491EF0106C088E392E15DD8219602
:10378000FE0164916623C1F71DC081E0F7018383C8
:10379000EFEEF0E06491EF0106C088E392E14CD8CF
:1037A0002196FE0164916623C1F7E5EAF2E0649197
:1037B000EF0106C088E392E13FD82196FE016491B3
:1037C0006623C1F788E392E16AE036D8D701A05BAF
:1037D000BF4FF701F1968BE101900D928150E1F717
:1037E000C7018F962CE430E0E20EF31EF7019183BF
:1037F0008083DF91CF911F910F91FF90EF900895FB
:103800002F923F924F925F926F927F929F92AF92D0
:10381000BF92CF92DF92EF92FF920F931F93DF93AD
:10382000CF93CDB7DEB7CC55D0400FB6F894DEBFFE
:103830000FBECDBF8C01662319F503591D4FD8016A
:103840008C910D561240882309F4E6C00FB6F89407
:1038500020912F123091301240913112509132123A
:103860000FBE0B591D4FF80180819181A281B38158
:103870000556124082179307A407B50708F4CCC079
:1038800003591D4FD8011C920D561240F801838137
:10389000882341F4C801F6DED80113968C91882361
:1038A00009F4BAC000D000D000D0EDB7FEB7319611
:1038B0006E010894C11CD11CADB7BEB71296DC9244
:1038C000CE92119786E191E093838283D8019D96F1
:1038D0008D919C919E97958384830E94811176019E
:1038E000EDB7FEB736960FB6F894FEBF0FBEEDBF2C
:1038F00056010AC0D7018C91992787FD90950E94A7
:1039000024ECF70181937F01F50101900020E9F794
:103910003197EA19FB098E2D8C198E175CF371E330
:10392000A72EB12CA00EB11EC50140E050E060E012
:1039300070E00E94427D99246DE3C62ED12CCC0EFE
:10394000DD1E2E010894411C511C5FE1652E712C77
:103950006C0E7D1E4FE0242E41E0342E43C0D70173
:103960008C9190E00E9424ECF70181937F01D601B5
:103970000D900020E9F71197AC19BD098E2D8C1917
:103980008A176CF327968FAD27978E3759F1C601AA
:10399000B20145E050E00E946411009719F500D093
:1039A00000D000D0EDB7FEB73196ADB7BEB71296D6
:1039B0007C926E92119733822282558244820E94B9
:1039C0008111EDB7FEB736960FB6F894FEBF0FBE65
:1039D000EDBFC3010E943B608BE091E00E94C45F99
:1039E00099249394C501B60140E050E00E946C8098
:1039F000181614F47601BBCF992041F48FEF9FEF96
:103A0000D8019E969C938E939D9706C0F80185A53C
:103A100096A5019696A785A7C45ADF4F0FB6F894CE
:103A2000DEBF0FBECDBFCF91DF911F910F91FF90F1
:103A3000EF90DF90CF90BF90AF909F907F906F906E
:103A40005F904F903F902F9008952F923F924F920A
:103A50005F926F927F928F929F92AF92BF92CF921E
:103A6000DF92EF92FF920F931F93DF93CF93CDB727
:103A7000DEB7CB58D0400FB6F894DEBF0FBECDBF37
:103A80007C012B015A0182E090E0A80EB91EF701DB
:103A90007196CB57DF4FF983E883C558D040C701F3
:103AA0000496CE57DF4F99838883C258D040CC57B5
:103AB000DF4F1882C458D040B2E6CB2ED12CCC0EAA
:103AC000DD1EF6013B96C957DF4FF983E883C758DF
:103AD000D040AEE66A2EA2E07A2E6E0C7F1CF0E794
:103AE0008F2EF2E09F2E8E0C9F1CEEE02E2E312C9E
:103AF0002C0E3D1E85E490E08C0F9D1F0296C7574B
:103B0000DF4F99838883C958D040EFEEF0E094915D
:103B1000C557DF4F9883CB58D0402BC1F601838522
:103B2000482F50E0BA01687170706031710509F07A
:103B30002EC1F301208131812130310509F427C1E3
:103B40002230310509F423C1F601DE01119690817E
:103B5000903239F08E2F8C19883011F48EE28D93CB
:103B60009D933196C957DF4F88819981C758D040BE
:103B7000E817F90761F71C921E86F20180818823FD
:103B800029F4C10160E071E00E944711C101B20156
:103B90000E944711C101BE016F5F7F4F0E94471114
:103BA000C10160E071E00E9447111AA61DA681E7DD
:103BB00093E099A788A7CE018A96B501AE014F5F21
:103BC0005F4F21E00E944885882371F5F3018081D1
:103BD0009181892B49F5C557DF4F6881CB58D0407B
:103BE0000FEE10E008C088E392E10E941C140F5F02
:103BF0001F4FF80164916623B1F788E392E162E018
:103C000071E00E94141488E392E16AE00E941C149F
:103C100088E392E1BE016F5F7F4F0E94141488E336
:103C200092E16AE00E941C14C757DF4FA881B98156
:103C3000C958D040FE01BA968BE101900D92815097
:103C4000E1F781E793E027969FAF8EAF2797C701F3
:103C5000B101AE014B5B5F4FF8DECE018B5B9F4F36
:103C60000E947A14CE0188960E947A1482C0953EF2
:103C700009F47FC09E3209F47CC09F3509F479C0F5
:103C8000F7019189992331F09E3209F472C09F3572
:103C900009F46FC043FD6DC080E06031710509F427
:103CA00081E0F70184A7882349F4F60180858734F1
:103CB00009F05FC081858E3709F45BC0CE57DF4FB6
:103CC000A881B981C258D040F6018081803241F08C
:103CD0008E2F8C19883011F48EE28D9380818D9314
:103CE0003196C957DF4F88819981C758D040E8176E
:103CF000F90759F71C92F301808191810097A9F48B
:103D000088E392E1B2010E94141488E392E1CE5755
:103D1000DF4F68817981C258D0400E94141488E333
:103D200092E16AE00E941C1424C08130910539F4AC
:103D3000F401808191810196918380831AC002975A
:103D4000C1F4CC57DF4FF881C458D0402F2F30E05A
:103D5000F4018081918128173907F1F0CC57DF4FAA
:103D6000F881C458D040FF5FCC57DF4FF883C45868
:103D7000D040C501B601CB57DF4F48815981C558A6
:103D8000D0400E946C8018160CF4C8CE05C0F60115
:103D90009081992309F06BCFC557DF4F0FB6F89488
:103DA000DEBF0FBECDBFCF91DF911F910F91FF906E
:103DB000EF90DF90CF90BF90AF909F908F907F90CB
:103DC0006F905F904F903F902F900895EF92FF92E9
:103DD0000F931F93DF93CF93CDB7DEB76D970FB6D9
:103DE000F894DEBF0FBECDBF7C018C01045B1F4F7A
:103DF000825B9F4FD8018D939C93EEE6F2E0EE0E2E
:103E0000FF1E21E030E0D7012D933D937D011D92EF
:103E10001C92E0E9FDEFEE0EFF1E029640E050E03E
:103E200060E070E00E94427DD801ED91FC91DE01DE
:103E3000139632968BE101900D928150E1F781E764
:103E400093E09A838983C70165E171E08E010F5F7A
:103E50001F4FA801FADDC8010E947A14F701E0594A
:103E6000FD4F808191816D960FB6F894DEBF0FBE35
:103E7000CDBFCF91DF911F910F91FF90EF900895EB
:103E8000EF92FF920F931F93DF93CF93CDB7DEB7DF
:103E90006D970FB6F894DEBF0FBECDBF7C018C01CD
:103EA000045B1F4F825B9F4FD8018D939C93EEE67E
:103EB000F2E0EE0EFF1E22E030E0D7012D933C939E
:103EC000E2E9FDEFEE0EFF1EF701E059FD4F6083C2
:103ED0001182029640E050E060E070E00E94427D76
:103EE000D801ED91FC91DE01139632968BE10190A1
:103EF0000D928150E1F781E793E09A838983C701AE
:103F000065E171E08E010F5F1F4FA8019EDDC801C2
:103F10000E947A146D960FB6F894DEBF0FBECDBF27
:103F2000CF91DF911F910F91FF90EF900895EF9245
:103F3000FF920F931F93DF93CF93CDB7DEB76D97AB
:103F40000FB6F894DEBF0FBECDBF7C018EE692E0C7
:103F5000E80EF91EF7011182108282E99DEFE80E4A
:103F6000F91E87010F5C1F4FC80140E050E060E080
:103F700070E00E94427DDE011396F8018BE1019012
:103F80000D928150E1F781E793E09A838983C7011D
:103F900065E171E08E010F5F1F4FA80156DDC8017A
:103FA0000E947A146D960FB6F894DEBF0FBECDBF97
:103FB000CF91DF911F910F91FF90EF900895CF93D4
:103FC000DF93FC0111AA14AA81E793E090AB87A7C5
:103FD000E05BFF4F10823396108235979183808388
:103FE000EE54F040EF01C559DF4FDE0120E030E034
:103FF000482F12961C92129715961C9215974C9367
:1040000011969C931197235E3F4F5D9681E022327B
:10401000380779F7E057FE4F89E1808333961082A5
:1040200078961082399610823396108235974083A5
:104030009183E155FF4F10821182128213823896CC
:104040001082118212821382E956F2401282138288
:1040500010821182E357FE4F11821082EE5BFF4FF8
:104060001082DE01C9011D920197E9F7E256FF4F68
:1040700081E08083ED56F24016A615A60FB6F8949F
:1040800080912F1290913012A0913112B091321282
:104090000FBE88579C4EAF4FBF4FEB59FD4F8083EB
:1040A0009183A283B383DF91CF9108950F931F93E0
:1040B000DF93CF93CDB7DEB72A970FB6F894DEBF64
:1040C0000FBECDBF8091160190911701A0911801EC
:1040D000B09119018B839C83AD83BE83FE0133961F
:1040E00024E630E08081F999FECF1FBA32BD21BDB0
:1040F00080BD0FB6F894FA9AF99A0FBE2F5F3F4F22
:104100002836310511F03196EDCFEDE9F8E08081E8
:10411000F999FECF1FBA32BD21BD80BD0FB6F8940C
:10412000FA9AF99A0FBE2F5F3F4F2837310511F0E9
:104130003196EDCFEDE8F8E08081F999FECF1FBA16
:1041400032BD21BD80BD0FB6F894FA9AF99A0FBE20
:104150002F5F3F4F2838310511F03196EDCFEDEA52
:10416000F8E08081F999FECF1FBA32BD21BD80BD34
:104170000FB6F894FA9AF99A0FBE2F5F3F4F28397D
:10418000310511F03196EDCFE1ECF8E08081F9993D
:10419000FECF1FBA32BD21BD80BD0FB6F894FA9A8A
:1041A000F99A0FBE2F5F3F4F2C39310511F0319630
:1041B000EDCFE5ECF8E08081F999FECF1FBA32BD72
:1041C00021BD80BD0FB6F894FA9AF99A0FBE2F5F01
:1041D0003F4F203A310511F03196EDCFEDEBF8E08D
:1041E0008081F999FECF1FBA32BD21BD80BD0FB6C7
:1041F000F894FA9AF99A0FBE2F5F3F4F243A31058F
:1042000011F03196EDCFE5EDF8E08081F999FECF20
:104210001FBA32BD21BD80BD0FB6F894FA9AF99A43
:104220000FBE2F5F3F4F283A310511F03196EDCF89
:10423000E9E8F8E08081F999FECF1FBA32BD21BDCF
:1042400080BD0FB6F894FA9AF99A0FBE2F5F3F4FD0
:104250002C3A310511F03196EDCFE9ECF8E0808190
:10426000F999FECF1FBA32BD21BD80BD0FB6F894BB
:10427000FA9AF99A0FBE2F5F3F4F203B310511F09C
:104280003196EDCFEDECF8E08081F999FECF1FBAC1
:1042900032BD21BD80BD0FB6F894FA9AF99A0FBECF
:1042A0002F5F3F4F243B310511F03196EDCFE1ED0B
:1042B000F8E08081F999FECF1FBA32BD21BD80BDE3
:1042C0000FB6F894FA9AF99A0FBE2F5F3F4F283B2A
:1042D000310511F03196EDCFE2E7F6E08081F999F2
:1042E000FECF1FBA32BD21BD80BD0FB6F894FA9A39
:1042F000F99A0FBE2F5F3F4F243C310511F03196E4
:10430000EDCFEEE1F1E18081F999FECF1FBA32BD28
:1043100021BD80BD0FB6F894FA9AF99A0FBE2F5FAF
:104320003F4F263C310511F03196EDCFE0E2F1E14F
:104330008081F999FECF1FBA32BD21BD80BD0FB675
:10434000F894FA9AF99A0FBE2F5F3F4F283C310537
:1043500011F03196EDCFE2E2F1E18081F999FECFE3
:104360001FBA32BD21BD80BD0FB6F894FA9AF99AF2
:104370000FBE2F5F3F4F2A3C310511F03196EDCF34
:10438000E4E2F1E18081F999FECF1FBA32BD21BD8F
:1043900080BD0FB6F894FA9AF99A0FBE2F5F3F4F7F
:1043A0002C3C310511F03196EDCFE6E2F1E1808150
:1043B000F999FECF1FBA32BD21BD80BD0FB6F8946A
:1043C000FA9AF99A0FBE2F5F3F4F2E3C310511F03C
:1043D0003196EDCFE8E2F1E18081F999FECF1FBA85
:1043E00032BD21BD80BD0FB6F894FA9AF99A0FBE7E
:1043F0002F5F3F4F203D310511F03196EDCFE4E6C0
:10440000F2E08081F999FECF1FBA32BD21BD80BD97
:104410000FB6F894FA9AF99A0FBE2F5F3F4F243DDA
:10442000310511F03196EDCFE8E6F2E08081F9999F
:10443000FECF1FBA32BD21BD80BD0FB6F894FA9AE7
:10444000F99A0FBE2F5F3F4F283D310511F031968D
:10445000EDCFECE6F2E08081F999FECF1FBA32BDD4
:1044600021BD80BD0FB6F894FA9AF99A0FBE2F5F5E
:104470003F4F2C3D310511F03196EDCFE2EBF2E0EC
:104480008081F999FECF1FBA32BD21BD80BD0FB624
:10449000F894FA9AF99A0FBE2F5F3F4F203E3105EC
:1044A00011F03196EDCFE6EBF2E08081F999FECF85
:1044B0001FBA32BD21BD80BD0FB6F894FA9AF99AA1
:1044C0000FBE2F5F3F4F243E310511F03196EDCFE7
:1044D000EAEBF2E08081F999FECF1FBA32BD21BD2F
:1044E00080BD0FB6F894FA9AF99A0FBE2F5F3F4F2E
:1044F000283E310511F03196EDCF80E290E09A83AD
:104500008983FE0131968081F999FECF1FBA32BDB1
:1045100021BD80BD0FB6F894FA9AF99A0FBE2F5FAD
:104520003F4F2A3E310571F7E2EBF6E08081F999C1
:10453000FECF1FBA32BD21BD80BD0FB6F894FA9AE6
:10454000F99A0FBE2F5F3F4F2E3E310511F0319685
:10455000EDCFE8E5F2E08081F999FECF1FBA32BDD8
:1045600021BD80BD0FB6F894FA9AF99A0FBE2F5F5D
:104570003F4F223F310511F03196EDCFE6EBF6E0EB
:104580008081F999FECF1FBA32BD21BD80BD0FB623
:10459000F894FA9AF99A0FBE2F5F3F4F263F3105E4
:1045A00011F03196EDCFECE5F2E08081F999FECF84
:1045B0001FBA32BD21BD80BD0FB6F894FA9AF99AA0
:1045C0000FBE2F5F3F4F2A3F310511F03196EDCFDF
:1045D000EAEBF6E08081F999FECF1FBA32BD21BD2A
:1045E00080BD0FB6F894FA9AF99A0FBE2F5F3F4F2D
:1045F0002E3F310511F03196EDCFE0E6F2E08081FB
:10460000F999FECF1FBA32BD21BD80BD0FB6F89417
:10461000FA9AF99A0FBE81E02130380721F02F5F16
:104620003F4F3196ECCF80911A0190911B01A091E0
:104630001C01B0911D018F839887A987BA87FE015D
:10464000379684E690E02081F999FECF1FBA92BD9B
:1046500081BD20BD0FB6F894FA9AF99A0FBE87363D
:10466000910519F001963196EECFE0EEF2E06491FB
:104670008F0108C088E392E10E941C140F5F1F4F56
:10468000F80164916623B1F7E4E5F5E064918F01E8
:1046900008C088E392E10E941C140F5F1F4FF801CD
:1046A00064916623B1F788E392E16AE00E941C14EA
:1046B0002A960FB6F894DEBF0FBECDBFCF91DF9123
:1046C0001F910F910895EF92FF920F931F93DF9325
:1046D000CF93CDB7DEB7E0970FB6F894DEBF0FBE2D
:1046E000CDBFDE011196E1E1F3E080E101900D9292
:1046F0008150E1F7DE015196E1E0F3E080E10190C5
:104700000D928150E1F7DE019196E1EFF2E080E158
:1047100001900D928150E1F789819A81AB81BC8132
:1047200080939D0890939E08A0939F08B093A00843
:1047300089899A89AB89BC8980938D0890938E086A
:10474000A0938F08B093900889A19AA1ABA1BCA1B6
:104750008093AD089093AE08A093AF08B093B008D3
:104760008D819E81AF81B8858093A1089093A20826
:10477000A093A308B093A4088D899E89AF89B88DB2
:104780008093910890939208A0939308B093940813
:104790008DA19EA1AFA1B8A58093B1089093B20856
:1047A000A093B308B093B40889859A85AB85BC857E
:1047B0008093A5089093A608A093A708B093A80893
:1047C000898D9A8DAB8DBC8D8093950890939608BA
:1047D000A0939708B093980889A59AA5ABA5BCA506
:1047E0008093B5089093B608A093B708B093B80823
:1047F0008D859E85AF85B8898093A9089093AA0876
:10480000A093AB08B093AC088D8D9E8DAF8DB8A1F1
:104810008093990890939A08A0939B08B0939C0862
:104820008DA59EA5AFA5B8A98093B9089093BA08A5
:10483000A093BB08B093BC080E946F6780E090E82B
:10484000ABE3B5E48093C1089093C208A093C3087A
:10485000B093C4088093C5089093C608A093C70876
:10486000B093C8080F2EF0E0EF2EF0E0FF2EF0E03E
:104870000F2FF0E01F2FF02DE092BD08F092BE0840
:104880000093BF081093C00880E29EE4A0E0B0E06F
:104890008093890890938A08A0938B08B0938C0822
:1048A000E092D508F092D6080093D7081093D80864
:1048B00040E050E060EA71E44093C9085093CA08B0
:1048C0006093CB087093CC088DEC9CECACECBEE311
:1048D0008093CD089093CE08A093CF08B093D008D2
:1048E00080E090E0A0EAB0E48093D1089093D208F1
:1048F000A093D308B093D408E0927A06F0927B0696
:1049000000937C0610937D06E0927606F09277067F
:104910000093780610937906E0927206F09273067F
:10492000009374061093750684EB90E090931F112A
:1049300080931E1186E490E09093211180932011C2
:104940002FEF30E0309323112093221180EF90E07D
:10495000909325118093241184E690E09093271181
:1049600080932611309329112093281140936402DB
:10497000509365026093660270936702E09268024A
:10498000F092690200936A0210936B02E0926C024B
:10499000F0926D0200936E0210936F028AE999E91A
:1049A000A1EBB1E48093B2029093B302A093B4025E
:1049B000B093B50261E77DE38AE89FE30E94D49556
:1049C0006093B6027093B7028093B8029093B902D5
:1049D00060E070E084EE92E40E94E0956093BA0299
:1049E0007093BB028093BC029093BD020E94D0944E
:1049F00080E090E0A0E8BFE38093BE029093BF0206
:104A0000A093C002B093C102E092B206F092B30646
:104A10000093B4061093B506E092B606F092B7067E
:104A20000093B8061093B906E092BA06F092BB065E
:104A30000093BC061093BD0680E090E0A8ECB2E4C1
:104A40008093580290935902A0935A02B0935B024C
:104A500080935C0290935D02A0935E02B0935F022C
:104A60008093600290936102A0936202B09363020C
:104A7000E0EEF2E064918F0108C088E392E10E94C9
:104A80001C140F5F1F4FF80164916623B1F7E6EE27
:104A9000F2E064918F0108C088E392E10E941C1447
:104AA0000F5F1F4FF80164916623B1F788E392E12D
:104AB0006AE00E941C14E0960FB6F894DEBF0FBEA9
:104AC000CDBFCF91DF911F910F91FF90EF9008958F
:104AD0000F931F93CF93DF9300EE12E0F8016491E0
:104AE000E80107C088E392E10E941C142196FE01B0
:104AF00064916623B9F7E4E4F5E06491EF0107C03F
:104B000088E392E10E941C142196FE0164916623C1
:104B1000B9F788E392E16AE00E941C14F8016491FD
:104B2000C0EED2E007C088E392E10E941C142196F7
:104B3000FE0164916623B9F740919D0850919E084B
:104B400060919F087091A0088CE395E00E942B353E
:104B50004091A1085091A2086091A3087091A40807
:104B600089E395E00E942B354091A5085091A60855
:104B70006091A7087091A80886E395E00E942B3504
:104B80004091A9085091AA086091AB087091AC08B7
:104B900083E395E00E942B35E0913812F0913912B1
:104BA0000280F381E02D88E392E16EE171E00995E6
:104BB00088E392E16AE00E941C14F8016491C0EE5F
:104BC000D2E007C088E392E10E941C142196FE0106
:104BD00064916623B9F7E9E1F5E06491EF0107C05C
:104BE00088E392E10E941C142196FE0164916623E1
:104BF000B9F788E392E16AE00E941C14F80164911D
:104C0000C0EED2E007C088E392E10E941C14219616
:104C1000FE0164916623B9F740918D0850918E088A
:104C200060918F087091900880E195E00E942B358B
:104C30004091910850919208609193087091940866
:104C40008DE095E00E942B35409195085091960893
:104C500060919708709198088AE095E00E942B3542
:104C60004091990850919A0860919B0870919C0816
:104C700087E095E00E942B35E0913812F0913912CF
:104C80000280F381E02D88E392E16EE171E0099505
:104C900088E392E16AE00E941C14F8016491C0EE7E
:104CA000D2E007C088E392E10E941C142196FE0125
:104CB00064916623B9F7E9EEF4E06491EF0107C06F
:104CC00088E392E10E941C142196FE016491662300
:104CD000B9F788E392E16AE00E941C14F80164913C
:104CE000C0EED2E007C088E392E10E941C14219636
:104CF000FE0164916623B9F74091AD085091AE086A
:104D00006091AF087091B00880EE94E00E94E434A6
:104D10004091B1085091B2086091B3087091B40805
:104D20008DED94E00E94E4344091B5085091B608AE
:104D30006091B7087091B8088AED94E00E94E4345D
:104D40004091B9085091BA086091BB087091BC08B5
:104D500087ED94E00E94E434E0913812F09139122A
:104D60000280F381E02D88E392E16EE171E0099524
:104D700088E392E16AE00E941C14F8016491C0EE9D
:104D8000D2E007C088E392E10E941C142196FE0144
:104D900064916623B9F7E2EAF4E06491EF0107C099
:104DA00088E392E10E941C142196FE01649166231F
:104DB000B9F788E392E16AE00E941C14F80164915B
:104DC000C0EED2E007C088E392E10E941C14219655
:104DD000FE0164916623B9F74091C1085091C20861
:104DE0006091C3087091C40889E994E00E942B3552
:104DF0004091C5085091C6086091C7087091C808D5
:104E000086E994E00E942B35E0913812F091391236
:104E10000280F381E02D88E392E16EE171E0099573
:104E200088E392E16AE00E941C14F8016491C0EEEC
:104E3000D2E007C088E392E10E941C142196FE0193
:104E400064916623B9F7E3EEF3E06491EF0107C0E4
:104E500088E392E10E941C142196FE01649166236E
:104E6000B9F788E392E16AE00E941C14F8016491AA
:104E7000C0EED2E007C088E392E10E941C142196A4
:104E8000FE0164916623B9F74091BD085091BE08B8
:104E90006091BF087091C0088AED93E00E942B35A5
:104EA0004091D5085091D6086091D7087091D808E4
:104EB00087ED93E00E942B354091890850918A0834
:104EC00060918B0870918C0884ED93E00E94E4342B
:104ED0004091C9085091CA086091CB087091CC08E4
:104EE00081ED93E00E942B354091CD085091CE0882
:104EF0006091CF087091D0088EEC93E00E942B3522
:104F00004091D1085091D2086091D3087091D40893
:104F10008BEC93E00E942B35E0913812F09139121E
:104F20000280F381E02D88E392E16EE171E0099562
:104F300088E392E16AE00E941C14F8016491C0EEDB
:104F4000D2E007C088E392E10E941C142196FE0182
:104F500064916623B9F7E9EBF3E06491EF0107C0D0
:104F600088E392E10E941C142196FE01649166235D
:104F7000B9F788E392E16AE00E941C14F801649199
:104F8000C0EED2E007C088E392E10E941C14219693
:104F9000FE0164916623B9F7409172065091730641
:104FA000609174067091750680EB93E00E942B353A
:104FB0004091760650917706609178067091790657
:104FC0008DEA93E00E942B3540917A0650917B0642
:104FD00060917C0670917D068AEA93E00E942B35F1
:104FE000E0913812F09139120280F381E02D88E3CC
:104FF00092E16EE171E0099588E392E16AE00E9436
:105000001C14F8016491C0EED2E007C088E392E17D
:105010000E941C142196FE0164916623B9F7ECE905
:10502000F3E06491EF0107C088E392E10E941C1451
:105030002196FE0164916623B9F788E392E16AE064
:105040000E941C14F8016491C0EED2E007C088E30E
:1050500092E10E941C142196FE0164916623B9F727
:105060004091B2025091B3026091B4027091B502C6
:1050700082E993E00E942B356091B6027091B702ED
:105080008091B8029091B9020E94DA95AB01BC01FF
:105090008FE893E00E942B356091BA027091BB02B9
:1050A0008091BC029091BD020E94E695AB01BC01CB
:1050B0008CE893E00E942B35E0913812F091391280
:1050C0000280F381E02D88E392E16EE171E00995C1
:1050D00088E392E16AE00E941C14F8016491C0EE3A
:1050E000D2E007C088E392E10E941C142196FE01E1
:1050F00064916623B9F7E9E7F3E06491EF0107C033
:1051000088E392E10E941C142196FE0164916623BB
:10511000B9F788E392E16AE00E941C14F8016491F7
:10512000C0EED2E007C088E392E10E941C142196F1
:10513000FE0164916623B9F74091B2065091B3061F
:105140006091B4067091B50680E793E00E942B351C
:105150004091B6065091B7066091B8067091B906B5
:105160008DE693E00E942B354091BA065091BB0624
:105170006091BC067091BD068AE693E00E942B35D3
:10518000E0913812F09139120280F381E02D88E32A
:1051900092E16EE171E0099588E392E16AE00E9494
:1051A0001C14F8016491C0EED2E007C088E392E1DC
:1051B0000E941C142196FE0164916623B9F7E7E56D
:1051C000F3E06491EF0107C088E392E10E941C14B0
:1051D0002196FE0164916623B9F788E392E16AE0C3
:1051E0000E941C14F8016491C0EED2E007C088E36D
:1051F00092E10E941C142196FE0164916623B9F786
:10520000409158025091590260915A0270915B028C
:105210008EE493E00E942B3540915C0250915D0238
:1052200060915E0270915F028BE493E00E942B35E7
:10523000409160025091610260916202709163023C
:1052400088E493E00E942B35E0913812F0913912F6
:105250000280F381E02D88E392E16EE171E009952F
:1052600088E392E16AE00E941C14F8016491C0EEA8
:10527000D2E007C088E392E10E941C142196FE014F
:1052800064916623B9F7E1E3F3E06491EF0107C0AD
:1052900088E392E10E941C142196FE01649166232A
:1052A000B9F788E392E16AE00E941C14F801649166
:1052B000C0EED2E007C088E392E10E941C14219660
:1052C000FE0164916623B9F7409164025091650232
:1052D000609166027091670288E293E00E942B352C
:1052E000409168025091690260916A0270916B026C
:1052F00085E293E00E942B3540916C0250916D0243
:1053000060916E0270916F0282E293E00E942B35F1
:10531000E0913812F09139120280F381E02D88E398
:1053200092E16EE171E0099588E392E16AE00E9402
:105330001C14DF91CF911F910F9108950F931F932C
:10534000DF93CF93CDB7DEB72A970FB6F894DEBFC1
:105350000FBECDBF80911A0190911B01A0911C013D
:10536000B0911D018F839887A987BA87FE01339674
:1053700004E610E0F999FECF12BD01BDF89A80B5A0
:1053800080830F5F1F4F0836110511F03196F2CF61
:10539000CE010796BE016D5F7F4F43E050E00E9453
:1053A0006411009709F017C2EDE9F8E0F999FECF12
:1053B00012BD01BDF89A80B580830F5F1F4F08377B
:1053C000110511F03196F2CFEDE8F8E0F999FECF32
:1053D00012BD01BDF89A80B580830F5F1F4F08385A
:1053E000110511F03196F2CFEDEAF8E0F999FECF10
:1053F00012BD01BDF89A80B580830F5F1F4F083939
:10540000110511F03196F2CF0E946F67E1ECF8E0E0
:10541000F999FECF12BD01BDF89A80B580830F5F68
:105420001F4F0C39110511F03196F2CFE5ECF8E081
:10543000F999FECF12BD01BDF89A80B580830F5F48
:105440001F4F003A110511F03196F2CFEDEBF8E065
:10545000F999FECF12BD01BDF89A80B580830F5F28
:105460001F4F043A110511F03196F2CFE5EDF8E047
:10547000F999FECF12BD01BDF89A80B580830F5F08
:105480001F4F083A110511F03196F2CFE9E8F8E024
:10549000F999FECF12BD01BDF89A80B580830F5FE8
:1054A0001F4F0C3A110511F03196F2CFE9ECF8E0FC
:1054B000F999FECF12BD01BDF89A80B580830F5FC8
:1054C0001F4F003B110511F03196F2CFEDECF8E0E3
:1054D000F999FECF12BD01BDF89A80B580830F5FA8
:1054E0001F4F043B110511F03196F2CFE1EDF8E0CA
:1054F000F999FECF12BD01BDF89A80B580830F5F88
:105500001F4F083B110511F03196F2CFE2E7F6E0AC
:10551000F999FECF12BD01BDF89A80B580830F5F67
:105520001F4F043C110511F03196F2CFEEE1F1E18D
:10553000F999FECF12BD01BDF89A80B580830F5F47
:105540001F4F063C110511F03196F2CFE0E2F1E178
:10555000F999FECF12BD01BDF89A80B580830F5F27
:105560001F4F083C110511F03196F2CFE2E2F1E154
:10557000F999FECF12BD01BDF89A80B580830F5F07
:105580001F4F0A3C110511F03196F2CFE4E2F1E130
:10559000F999FECF12BD01BDF89A80B580830F5FE7
:1055A0001F4F0C3C110511F03196F2CFE6E2F1E10C
:1055B000F999FECF12BD01BDF89A80B580830F5FC7
:1055C0001F4F0E3C110511F03196F2CFE8E2F1E1E8
:1055D000F999FECF12BD01BDF89A80B580830F5FA7
:1055E0001F4F003D110511F03196F2CFE4E6F2E0D5
:1055F000F999FECF12BD01BDF89A80B580830F5F87
:105600001F4F043D110511F03196F2CFE8E6F2E0AC
:10561000F999FECF12BD01BDF89A80B580830F5F66
:105620001F4F083D110511F03196F2CFECE6F2E084
:10563000F999FECF12BD01BDF89A80B580830F5F46
:105640001F4F0C3D110511F03196F2CFE2EBF2E065
:10565000F999FECF12BD01BDF89A80B580830F5F26
:105660001F4F003E110511F03196F2CFE6EBF2E04C
:10567000F999FECF12BD01BDF89A80B580830F5F06
:105680001F4F043E110511F03196F2CFEAEBF2E024
:10569000F999FECF12BD01BDF89A80B580830F5FE6
:1056A0001F4F083E110511F03196F2CFFE013196E1
:1056B000F999FECF12BD01BDF89A80B580830F5FC6
:1056C0001F4F0A3E110599F7E2EBF6E0F999FECF7C
:1056D00012BD01BDF89A80B580830F5F1F4F0E3E4B
:1056E000110511F03196F2CFE8E5F2E0F999FECF1D
:1056F00012BD01BDF89A80B580830F5F1F4F023F36
:10570000110511F03196F2CFE6EBF6E0F999FECFF4
:1057100012BD01BDF89A80B580830F5F1F4F063F11
:10572000110511F03196F2CFECE5F2E0F999FECFD8
:1057300012BD01BDF89A80B580830F5F1F4F0A3FED
:10574000110511F03196F2CFEAEBF6E0F999FECFB0
:1057500012BD01BDF89A80B580830F5F1F4F0E3FC9
:10576000110511F03196F2CFE0E6F2E0F999FECFA3
:1057700012BD01BDF89A80B5808381E00130180721
:1057800021F00F5F1F4F3196F1CF0E94D094E0EED1
:10579000F2E064918F0108C088E392E10E941C143A
:1057A0000F5F1F4FF80164916623B1F7E8E0F3E063
:1057B00064918F0108C088E392E10E941C140F5F7E
:1057C0001F4FF80164916623B1F788E392E16AE024
:1057D0000E941C1402C00E9463237AD92A960FB635
:1057E000F894DEBF0FBECDBFCF91DF911F910F9117
:1057F0000895CF93DF930FB6F89480912F12909174
:105800003012A0913112B09132120FBE8093C706B0
:105810009093C806A093C906B093CA06E091F0061B
:10582000F091F106EE50F94F8081882399F4E9E177
:10583000F6E06491EF0107C088E392E10E941C1436
:105840002196FE0164916623B9F788E392E16AE04C
:105850000E941C14DF91CF910895EF92FF920F9355
:105860001F93CF93DF93EC01E0907E06F0907F06CC
:105870000091800610918106688179818A819B81DF
:10588000A80197010E94E1E7882324F4E882F982C5
:105890000A831B83E0908206F090830600918406C1
:1058A000109185066C817D818E819F81A801970171
:1058B0000E94E1E7882324F4EC82FD820E831F839B
:1058C000E0908606F0908706009188061091890680
:1058D000688579858A859B85A80197010E94E1E703
:1058E000882324F4E886F9860A871B87E0904A0219
:1058F000F0904B0200914C0210914D026881798129
:105900008A819B81A80197010E94EFE9181624F46F
:10591000E882F9820A831B83E0904E02F0904F02E6
:1059200000915002109151026C817D818E819F8186
:10593000A80197010E94EFE9181624F4EC82FD8279
:105940000E831F83E0905202F090530200915402A4
:1059500010915502688579858A859B85A8019701F4
:105960000E94EFE9181624F4E886F9860A871B8757
:10597000DF91CF911F910F91FF90EF90089580914B
:10598000B00608950F931F93CF93DF938130910555
:1059900049F46F5F7F4F09F046C088EE93E00E94A4
:1059A000DF1F41C0892B09F03EC06F5F7F4FD9F5E3
:1059B00081E793E090939B0580939A0580919F05E2
:1059C000882321F08CE995E00E945B7EC8E5D5E054
:1059D00001E713E005C06D9784E0C633D80751F0A6
:1059E000198308838D818823B1F3CE0102960E942A
:1059F0005B7EF1CF81E793E0998388838D81882353
:105A000021F0CE0102960E945B7E81E793E09093A5
:105A100018048093170480911C04882321F089E1E5
:105A200094E00E945B7EDF91CF911F910F910895CA
:105A300080E090E06FEF7FEFA5CF81E090E06FEF27
:105A40007FEFA0CFCF93DF930E94B7958091B006F0
:105A5000882309F038C081E08093B0068091BF06AA
:105A60009091C006A091C106B091C2068093C30672
:105A70009093C406A093C506B093C606EAE6F5E087
:105A80006491EF0107C088E392E10E941C14219603
:105A9000FE0164916623B9F7EBE7F5E06491EF014D
:105AA00007C088E392E10E941C142196FE016491D4
:105AB0006623B9F788E392E16AE00E941C1481E74B
:105AC00095E00E94D4CEDF91CF910895CF93DF93DC
:105AD000F8940E94B795779A10928A06769A109257
